:100000000C9474000C949C000C949C000C949C0028
:100010000C949C000C949C000C949C000C949C00F0
:100020000C949C000C949C000C949C000C949C00E0
:100030000C949C000C949C000C949C000C949C00D0
:100040000C94A70D0C949C000C94750D0C944F0D02
:100050000C949C000C949C000C949C000C949C00B0
:100060000C94F10D0C949C00084AD73B3BCE016EDA
:1000700084BCBFFDC12F3D6C74319ABD56833DDAFF
:100080003D00C77F11BED9E4BB4C3E916BAAAABE0E
:10009000000000803F0000000000240027002A002C
:1000A00000000000250028002B00040404040404C0
:1000B0000404020202020202030303030303010217
:1000C00004081020408001020408102001020408E6
:1000D00010200000000800020100000304070000D7
:1000E000000000000000100F11241FBECFEFD8E069
:1000F000DEBFCDBF23E0A4EEB1E001C01D92AE3F54
:10010000B207E1F711E0A0E0B1E0EAE3FBE202C0F0
:1001100005900D92A43EB107D9F710E0C4E7D0E0F6
:1001200004C02197FE010E947014C337D107C9F79C
:100130000E94700F0C949B150C940000E9EFF2E004
:10014000A089B18982E08C93A485B5851C92A6858F
:10015000B78580E18C93108EA489B58986E08C9355
:10016000A289B3898C9180618C93A289B3898C9187
:1001700088608C93A289B3898C9180688C93028863
:10018000F389E02D80818F7D80830895AF92BF92A7
:10019000CF92DF92EF92FF920F931F93CF93DF9353
:1001A0006C017B018B01040F151FEB015E01AE1882
:1001B000BF08C017D10759F06991D601ED91FC91A4
:1001C0000190F081E02DC6010995892B79F7C501D1
:1001D000DF91CF911F910F91FF90EF90DF90CF9023
:1001E000BF90AF900895FC01538D448D252F30E0D2
:1001F000842F90E0821B930B541710F0CF96089534
:1002000001970895FC01918D828D981761F0A28D60
:10021000AE0FBF2FB11D5D968C91928D9F5F9F7326
:10022000928F90E008958FEF9FEF0895FC01918DDC
:10023000828D981731F0828DE80FF11D858D90E049
:1002400008958FEF9FEF0895FC01918D228D892FE6
:1002500090E0805C9F4F821B91098F7399270895CE
:1002600089EF92E00E94240121E0892B09F420E02B
:10027000822F089580E090E0892B29F00E943001C0
:1002800081110C9400000895FC01A48DA80FB92FD2
:10029000B11DA35ABF4F2C91848D90E001968F73AE
:1002A0009927848FA689B7892C93A089B1898C91CD
:1002B000837080648C93938D848D981306C002881C
:1002C000F389E02D80818F7D80830895EF92FF92E6
:1002D0000F931F93CF93DF93EC0181E0888F9B8D69
:1002E0008C8D98131AC0E889F989808185FF15C023
:1002F0009FB7F894EE89FF896083E889F989808146
:100300008370806480839FBF81E090E0DF91CF9114
:100310001F910F91FF90EF900895F62E0B8D10E036
:100320000F5F1F4F0F731127E02E8C8D8E110CC0A5
:100330000FB607FCFACFE889F989808185FFF5CFF0
:10034000CE010E944401F1CFEB8DEC0FFD2FF11D8A
:10035000E35AFF4FF0829FB7F8940B8FEA89FB892D
:1003600080818062CFCFCF93DF93EC01888D88238B
:10037000B9F0AA89BB89E889F9898C9185FD03C008
:10038000808186FD0DC00FB607FCF7CF8C9185FFED
:10039000F2CF808185FFEDCFCE010E944401E9CFED
:1003A000DF91CF91089590E0FC01EE52FF4F249130
:1003B000FC01E254FF4F3491FC01E655FF4FE491FC
:1003C000EE23C9F0222339F0233001F1A8F42130C3
:1003D00019F1223029F1F0E0EE0FFF1FE056FF4F38
:1003E000A591B4918FB7F894EC91611126C0309526
:1003F0003E233C938FBF08952730A9F02830C9F0E1
:10040000243049F7809180008F7D03C08091800067
:100410008F7780938000DFCF84B58F7784BDDBCF6B
:1004200084B58F7DFBCF8091B0008F778093B00033
:10043000D2CF8091B0008F7DF9CF3E2BDACFCF9312
:10044000DF9390E0FC01E254FF4F249186559F4FCB
:10045000FC0184918823D1F090E0880F991FFC0162
:10046000EA56FF4FA591B491FC01E056FF4FC591AC
:10047000D491623071F49FB7F8943C91822F8095AB
:1004800083238C93E8812E2B28839FBFDF91CF910C
:1004900008958FB7F894EC912E2B2C938FBFF6CF45
:1004A0008230910538F0880F991F880F991F0597A2
:1004B0000197F1F708953FB7F89480915302909116
:1004C0005402A0915502B091560226B5A89B05C0D2
:1004D0002F3F19F00196A11DB11D3FBFBA2FA92FC3
:1004E000982F8827BC01CD01620F711D811D911DC0
:1004F00042E0660F771F881F991F4A95D1F708952C
:100500008F929F92AF92BF92CF92DF92EF92FF9223
:100510006B017C010E945B024B015C01C114D104A0
:10052000E104F104B9F00E945B02681979098A09B3
:100530009B09683E73408105910580F321E0C21A52
:10054000D108E108F10888EE880E83E0981EA11C0E
:10055000B11CE4CFFF90EF90DF90CF90BF90AF90B1
:100560009F908F9008952FB7F89460914F027091EB
:10057000500280915102909152022FBF0895209114
:100580002902260F3327331F21323105ECF4209145
:10059000CF02FC0190E080E0243069F082E0089511
:1005A000A09129022191AC01495F5D4FA40FB52FA5
:1005B000B11D2C930196861798F380912902680F3C
:1005C0006093290280E0089581E008951092CF029F
:1005D00081E08093CE021092A90261E082E10E9444
:1005E000D30161E083E10E94D301E9EBF0E0808177
:1005F0008E7F808380818D7F808388E48093B800A4
:1006000085E48093BC000895CF93DF9391E09093AD
:1006100006028823B9F0C091B800D091BA00809149
:10062000BC008A7B8093BC0060E082E10E94D30121
:1006300060E083E10E94D3010E94E602D093BA00F9
:10064000C093B800DF91CF9108958F929F92AF929F
:10065000BF92CF92DF92EF92FF920F931F93CF93AF
:10066000DF93D091F802D13208F0D7C0182FC09193
:10067000F7020E945B026B017C018091CF02811125
:100680006BC082E08093CF021093CE028FEF8093F5
:10069000CD021092CC02D093CB02A7EDB2E0EBEAF0
:1006A000F2E080E0D81391C01092AA028091AA02D1
:1006B000CC0FC82BC093AA028091A902813009F007
:1006C00088C01092A9020E945B026B017C0180919C
:1006D000AA028093BB008091D1029091D202A09196
:1006E000D302B091D402892B8A2B8B2BA1F00E94CC
:1006F0005B020091D1021091D2022091D30230917D
:10070000D4026C197D098E099F090617170728075F
:10071000390708F442C08091BC0083FDD8CF85EC36
:100720008093BC000E945B026B017C018091CF0230
:10073000823009F450C08091CD028F3F09F46FC020
:100740008091CD02803209F46CC08091CD0280335B
:1007500009F469C084E026C08091D1029091D20250
:10076000A091D302B091D402892B8A2B8B2B09F450
:1007700084CF0E945B028090D1029090D202A09020
:10078000D302B090D4026C197D098E099F09861698
:100790009706A806B90608F070CF8091D0020E9493
:1007A000040385E01092D6021092F8021092D5024E
:1007B000DF91CF911F910F91FF90EF90DF90CF903D
:1007C000BF90AF909F908F9008959D9191938F5F70
:1007D00069CF85EEA5CF8091D1029091D202A091F0
:1007E000D302B091D402892B8A2B8B2B09F49ECF94
:1007F0000E945B020091D1021091D2022091D3029B
:100800003091D4026C197D098E099F0906171707CC
:100810002807390708F08ACFC0CF81E0C3CF80E036
:10082000C1CF82E0BFCF83E0BDCF08950895089582
:10083000E091050280910402E81730F4F0E0EC51F9
:10084000FE4F808190E008958FEF9FEF0895909183
:100850000502809104022FEF3FEF981748F4E92F2B
:10086000F0E0EC51FE4F208130E09F5F9093050255
:10087000C90108958091040290910502891B990B8A
:100880000895CF92DF92EF92FF920F931F93CF9331
:10089000DF937C01CB018A012091D502222389F0CC
:1008A000EB016B01C40ED51ECC15DD0569F0699115
:1008B000D701ED91FC910190F081E02DC7010995E0
:1008C000F3CF642F0E94BF02C801DF91CF911F9127
:1008D0000F91FF90EF90DF90CF900895CF93DF932B
:1008E0001F92CDB7DEB769832091D5022223F9F09C
:1008F0002091F802203258F021E030E0FC013383EF
:10090000228390E080E00F90DF91CF910895809155
:10091000D602E82FF0E0E952FD4F998190838F5F76
:100920008093D6028093F80281E090E0ECCF61E002
:10093000CE0101960E94BF02F7CF90E080E00895BB
:10094000FC0183858F3F19F061E00C94D301089579
:10095000FC0180819181892B39F0A281B3819C9126
:1009600011968C919CBD8DBD83858F3F19F060E001
:100970000C94D3010895AF92BF92CF92DF92EF9281
:10098000FF920F931F93CF93DF93EC01888199819E
:10099000892B89F06EBD0DB407FEFDCFBEB48B2D43
:1009A000DF91CF911F910F91FF90EF90DF90CF904B
:1009B000BF90AF9008958885998511E0892B09F043
:1009C00010E8AA24A394862F812309F0A12C062FD6
:1009D0002C813D814E815F8160E271EA87E090E089
:1009E0000E949112F22EB02EE12CC22ED12CFF20AB
:1009F00019F0C6010E9450028A85877F09F042C023
:100A00008D858F3F89F0902F912381E009F480E05C
:100A10008A1551F0EF85F8898F89992369F19081C2
:100A2000892B8083AA24A394E989FA898081998DEE
:100A3000892B8083FF2019F0C6010E9450028E8509
:100A40008F3F39F0EB89FC898081988D892309F0EB
:100A5000E12AE989FA899081898D809589238083AB
:100A60008E858F3F09F0BE2C88859985892BB9F535
:100A7000110F1111BCCF93CF908180958923808372
:100A8000A12CD2CFE989FA898081998D892B808325
:100A9000FF2019F0C6010E9450028D858F3F49F05A
:100AA000EF85F8898F89902F9123A9F09081892B68
:100AB0008083E989FA899081898D80958923808353
:100AC0008E858F3F69F2EB89FC898081988D89231F
:100AD00039F2E12AC5CF908180958923E9CF169517
:100AE000C8CF8F929F92AF92BF92CF92DF92EF9238
:100AF000FF920F931F93CF93DF937C014B016A0109
:100B0000B22EA32E0E94A804E401C80CD91CCC1557
:100B1000DD0569F4CB2DDA2D0C0F1D1FC017D10791
:100B200059F06FEFC7010E94BB048993F7CF699119
:100B3000C7010E94BB04EBCFC7010E94A00481E063
:100B4000DF91CF911F910F91FF90EF90DF90CF90A9
:100B5000BF90AF909F908F9008958F929F92AF9289
:100B6000BF92CF92DF92EF92FF920F931F93CF939A
:100B7000DF937C01B62EA72E6A0149010E94A804CA
:100B8000E401080D191DC017D10761F4CB2DDA2D32
:100B9000CC0EDD1ECC15DD0551F06991C7010E9418
:100BA000BB04F8CF6991C7010E94BB04ECCFC70119
:100BB0000E94A00481E0DF91CF911F910F91FF90DF
:100BC000EF90DF90CF90BF90AF909F908F9008955F
:100BD0001F93CF93DF93EA01122FDC0111968D91C1
:100BE0009C91DC01ED91FC910280F381E02D09954F
:100BF000C817D90729F4812F0E94250391E081119C
:100C000090E0892FDF91CF911F910895CF93DF93CB
:100C1000EC018B818823A1F0888191E09093D5022B
:100C20008093F7021092D6021092F80281E00E949F
:100C3000250391E0811190E0892FDF91CF910895F4
:100C400010920502109204021092D6021092F8023D
:100C50000E94E60285E194E09093280280932702A7
:100C600086E194E090932C0280932B0281E08B83A9
:100C7000CE010E940606982F8111CECFDDCFAF9214
:100C8000BF92CF92DF92EF92FF920F931F93CF9379
:100C9000DF9300D0CDB7DEB7DC01211103C0189679
:100CA0002C911897253008F043C01F964D935D9303
:100CB0006D937C93529790E080E0E22EF12C8E159C
:100CC0009F05B4F41A962C911A9721110AC0FD01C0
:100CD000E80FF91F4387452F562F672F7727019677
:100CE000EECFF701E81BF90BEA0FFB1F4287F3CFAA
:100CF0006D018BE0C80ED11C16969C911697179625
:100D00008C91179799838A83AD90BC901197A11409
:100D1000B10409F441C019960C9110E098012E0D10
:100D20003F1DD50114968D919C918217930710F465
:100D300080E016C0F50181819281208131E03093FD
:100D4000D5022093F7021092D6021092F8020115F4
:100D5000110599F421E0A701B601C5010E94E8053B
:100D60000F900F90DF91CF911F910F91FF90EF9017
:100D7000DF90CF90BF90AF900895DC01ED91FC9192
:100D80000280F381E02DA801BE016F5F7F4F0995BE
:100D90000817190769F6DECF1296ED91FC911397AB
:100DA000309731F214962D913C91159719960C912C
:100DB00010E02330310571F48E7F89839A830F5FB1
:100DC0001F4F9E012F5F3F4FA701B601CF010E9429
:100DD000AD05C6CF2115310519F49F779983F1CF61
:100DE0002230310511F49068F9CF2130310549F7EF
:100DF0009F779064F3CF0895FC0163870895FC0109
:100E000001900020E9F73197AF01481B590BBC0155
:100E100089EF92E00C94C6008F929F92AF92BF929E
:100E20000F931F93CF93DF93CDB7DEB7A1970FB684
:100E3000F894DEBF0FBECDBF19A2423008F44AE0DD
:100E40008E010F5D1F4F842E912CB12CA12CA5017A
:100E500094010E949112E62FB901CA01EA30F4F41C
:100E6000E05DD801EE938D01232B242B252B79F700
:100E700090E080E0109719F0CD010E94FF06A19646
:100E80000FB6F894DEBF0FBECDBFDF91CF911F919B
:100E90000F91BF90AF909F908F900895E95CE1CF44
:100EA000CF93DF930E94FF06EC0180E491E00E9463
:100EB000FF068C0F9D1FDF91CF9108952F923F92D7
:100EC0004F925F926F927F928F929F92AF92BF925A
:100ED000CF92DF92EF92FF920F931F93CF93DF9306
:100EE00000D000D0CDB7DEB7FC014B01042F9681B6
:100EF000878199838A83208031802114310409F409
:100F000039C1418550E0D10114968D919C9184178F
:100F10009507C8F4B12C8B2D0F900F900F900F9068
:100F2000DF91CF911F910F91FF90EF90DF90CF90C5
:100F3000BF90AF909F908F907F906F905F904F90F9
:100F40003F902F900895F101808191E09093D50218
:100F50008093F7021092D6021092F80220E0BE01B0
:100F60006F5F7F4FC1010E94E805B82E882391F280
:100F7000802F90E09C838B83D12CC12C01E0AB812E
:100F8000BC81CA16DB0638F6F101848195817D01AA
:100F9000EC18FD088E159F0508F47C01D101AC907A
:100FA0000E945B022B013C018091CF02811172C033
:100FB0001E2D113208F010E20093CF0221E08B8148
:100FC0009C818E199F09C816D90608F420E0209349
:100FD000CE02BFEFB093CD021092CC028FEF810F03
:100FE0008093CB020093AA028091AA02AA0CA82A9D
:100FF000A092AA028091A902813009F092C01092B9
:10100000A9020E945B022B013C018091AA028093FD
:10101000BB008091D1029091D202A091D302B091F5
:10102000D402892B8A2B8B2BA1F00E945B0220918A
:10103000D1023091D2024091D3025091D40264196E
:10104000750986099709261737074807590708F4CD
:1010500042C08091BC0083FDD8CFE5ECE093BC009A
:101060000E945B022B013C018091CF02813009F488
:101070005CC08091CC02811710F41091CC02ABEAD5
:10108000B2E0E4EEF1E080E0811751F19D9191939F
:101090008F5FFACF8091D1029091D202A091D302BA
:1010A000B091D402892B8A2B8B2B09F47DCF0E941F
:1010B0005B022091D1023091D2024091D302509133
:1010C000D402641975098609970926173707480756
:1010D000590708F069CF8091D0020E94040310E004
:1010E00010920502109304021E151F0409F012CF7E
:1010F00034016C0C7D1C2301C201861997098E15E1
:101100009F05A8F5D10111968D919C91DC01ED917F
:10111000FC910284F385E02D0995F20181932F0162
:10112000EBCFF5EEF093BC009BCF8091D102909174
:10113000D202A091D302B091D402892B8A2B8B2B9F
:1011400009F492CF0E945B022091D1023091D20229
:101150004091D3025091D402641975098609970908
:10116000261737074807590708F07ECFB4CFCE0CB3
:10117000DF1C05CFA281B381109709F4CBCE248167
:10118000358110E0418550E02330310571F48160F4
:1011900089839A834F5F5F4F9401BE016F5F7F4FDA
:1011A000CD010E947105B82EB6CE2115310519F476
:1011B00090689983F1CF2230310511F49F77F9CFF0
:1011C0002130310549F7906CF4CFCF93DF93EC01D8
:1011D000BC01655F7F4F48850E945E07882301F14F
:1011E000488550E030E020E060E070E0CB0124175B
:1011F0003507CCF4982F872F762F6627EA85E111E3
:101200000AC0FA01E21BF30BEC0FFD1FE2856E2B07
:101210002F5F3F4FECCFFE01E20FF31FE385F7CFC7
:101220006FEF7FEFCB01DF91CF910895EF92FF92A7
:101230000F931F93CF93DF93CDB7DEB763970FB6AE
:10124000F894DEBF0FBECDBF7C018B01FC0180890D
:101250009189188A198A1A8A1B8A9A8389831C821F
:101260001B8281E08A8721E030E038872F831B864C
:101270008987CE0101960E94E508DC01CB018F71C0
:10128000A80170E060E025E0440F551F661F771F3E
:101290002A95D1F7482B592B6A2B7B2B2985CE0118
:1012A00001960E943F06F70112870187033011055E
:1012B00009F46AC068F50130110509F443C0023031
:1012C000110509F450C080E090E8A9E8B4E48093E7
:1012D000040190930501A0930601B093070180E0FB
:1012E00090E0A5E7B4E48093000190930101A093FE
:1012F0000201B093030163960FB6F894DEBF0FBEF0
:10130000CDBFDF91CF911F910F91FF90EF90089586
:101310000530110509F45AC008F447C0063011051C
:1013200091F680E090E0A6E6B3E480930401909308
:101330000501A0930601B093070180E090E0ADE4C1
:10134000B3E4D1CF80E090ECA5E5B4E48093040150
:1013500090930501A0930601B093070180E090E00F
:10136000AEE3B4E4C0CF80E090E8A7E2B4E48093B9
:10137000040190930501A0930601B093070180E05A
:1013800090E0A6E1B4E4AFCF80E090E0A1EEB3E45A
:101390008093040190930501A0930601B093070187
:1013A00080E090E0A8ECB3E49ECF80E090E0A8EC71
:1013B000B3E48093040190930501A0930601B093D8
:1013C000070180E090E8A1EBB3E48DCF80E090E0EE
:1013D000A5EAB3E48093040190930501A09306016C
:1013E000B093070180E090E8A3E9B3E47CCF85EDFA
:1013F0008093BC008091D1029091D202A091D3023F
:10140000B091D4020796A11DB11D23E0B695A79512
:10141000979587952A95D1F72091BC0024FD03C0AC
:101420001092CF0208954091D1025091D202609162
:10143000D3027091D402452B462B472B69F30097BA
:10144000A105B10541F025E32A95F1F700000197C8
:10145000A109B109E1CF8091D0020C9404030C944E
:101460001215CF93DF93EB01FB01709628E1DF01AA
:101470001D922A95E9F72BE0E3E4F1E0DB0101900E
:101480000D922A95E1F71B8641E050E060E070E0A4
:101490004C875D876E877F87FC0184859585A6854F
:1014A000B785888B998BAA8BBB8B82E090E0A0E0FC
:1014B000B0E08C8B9D8BAE8BBF8B1CA21DA21EA29D
:1014C0001FA2188E198E1A8E1B8E1C8E1D8E1E8EBC
:1014D0001F8E18A219A21AA21BA2DF91CF91089504
:1014E0008F929F92AF92BF92CF92DF92EF92FF9234
:1014F0000F931F93CF93DF93CDB7DEB7AC970FB6A3
:10150000F894DEBF0FBECDBF8C017B0184E2FB01EE
:1015100011928A95E9F7F801808991891BA21CA292
:101520001DA21EA29D8B8C8B1F8A1E8A81E08D8F2F
:1015300029E030E03B8F2A8F1E8E8C8FBB24B39422
:1015400083E0C82ED12C96E0A92ECE0144960E94AD
:10155000E50860FFFEC0F80180899189188A198A20
:101560001A8A1B8A9A8389831C821B82BA86D88630
:10157000CF821B86A98646E0BE01695D7F4FCE0102
:1015800001960E945E074FA158A55427452754276E
:1015900089A59AA59827892798272BA53CA53227A6
:1015A00023273227F801548343833683258390878A
:1015B00087836385662329F1BA016950784F51E02A
:1015C0006F3E7F4008F450E02950384F41E02F3EF5
:1015D0003F4008F440E0542B29F48950984F8F3E47
:1015E0009F4078F0F801818592858230910509F459
:1015F000A7C008F092C0009709F4A8C0019709F4A9
:10160000A2C084E290E0A0E0B0E0F7018083918383
:10161000A283B383F80184859585A685B785F701F4
:1016200084839583A683B78382E090E0A0E0B0E056
:1016300080879187A287B3870E94B302F701608BEE
:10164000718B828B938B8090040190900501A09008
:101650000601B0900701F80163817481072E000C28
:10166000880B990B0E947411A50194010E9492139A
:1016700020E030E048EC52E40E94D311F701648B83
:10168000758B868B978BF80165817681072E000C10
:10169000880B990B0E947411A50194010E9492136A
:1016A00020E030E048EC52E40E94D311F701608F53
:1016B000718F828F938FF80167817085072E000CE0
:1016C000880B990B0E947411209100013091010147
:1016D00040910201509103010E94921320E030E0FA
:1016E00048EC52E40E94D311F701648F758F868F06
:1016F000978F81E0AC960FB6F894DEBF0FBECDBFDA
:10170000DF91CF911F910F91FF90EF90DF90CF90DD
:10171000BF90AF909F908F9008958430910551F0C5
:1017200060F0059709F06DCF66E070E0C8010E9497
:1017300016090BCF65E070E0F9CF64E070E0F6CFFA
:1017400063E070E0F3CF62E070E0F0CF61E070E062
:10175000EDCF80E0CFCFCF92DF92EF92FF92CF9389
:10176000DF93CDB7DEB7A4970FB6F894DEBF0FBEF8
:10177000CDBFC12CD12C760120E030E0A901C701FA
:10178000B6010E946D11811131C0BE016F5F7F4FA4
:1017900088EE93E00E94700A2D893E894F89588D0A
:1017A000698D7A8D8B8D9C8D0E94331320E030E003
:1017B00044E353E40E94D31120ED3FE049E450E4B8
:1017C0000E9492136B017C0120E030E0A9010E948D
:1017D0006D1187FFD1CF20E030E044EB53E4C70127
:1017E000B6010E94B4126B017C01C6CFC701B601DD
:1017F000A4960FB6F894DEBF0FBECDBFDF91CF9198
:10180000FF90EF90DF90CF9008958F929F92AF92CC
:10181000BF92CF92DF92EF92FF920F931F93CF93DD
:10182000DF93CDB7DEB7A9970FB6F894DEBF0FBE32
:10183000CDBF1092E4031092E5031092E6031092DC
:10184000E7031092A4031092A5031092A60310922E
:10185000A7030E94B3026B017C014B015C0188EB82
:10186000880E8BE0981EA11CB11C0E94B3026C155F
:101870007D058E059F0528F086169706A806B906F1
:10188000A0F768EE73E080E090E00E9480020E9482
:101890009E000E94B3026093A4037093A5038093FB
:1018A000A6039093A70381E591E00E94FF060E94A2
:1018B000B3026B017C014B015C01EAE08E0E911CCE
:1018C000A11CB11C0E94B3026C157D058E059F05FD
:1018D00028F086169706A806B906A0F7FF24F39409
:1018E000F092B8030E94B3026093A4037093A5031F
:1018F0008093A6039093A70382E691E00E94FF06DF
:101900000E949E0089E691E00E94500762E083E019
:101910000E941F0261E083E00E941F0261E083E0F9
:101920000E94D30162E084E00E941F0261E084E033
:101930000E941F0261E084E00E94D30162E085E022
:101940000E941F0261E085E00E941F0261E085E0C5
:101950000E94D30162E086E00E941F0261E086E0FF
:101960000E941F0261E086E00E94D30162E082E0F3
:101970000E941F0261E082E00E941F0286E090E068
:101980000E9476148C018EE1F801808386E993E051
:1019900092838183138280E290E095838483109305
:1019A000F9030093F80310920502109204021092BA
:1019B000D6021092F8020E94E60285E194E090932C
:1019C00028028093270286E194E090932C02809372
:1019D0002B02F801F382C8010E940606882309F44D
:1019E00059C08091F8039091F9031BA21CA21DA27B
:1019F0001EA29D8B8C8B1F8A1E8AFD8E82E090E03A
:101A00009B8F8A8F1E8EFC8E20E040E050E0BA0152
:101A1000CE0144960E943F068091F8039091F9030D
:101A2000188A198A1A8A1B8A9A8389831C821B82C4
:101A3000FA868AE090E098878F831B8683E0898707
:101A400043E0BE01695D7F4FCE0101960E945E07B3
:101A50008FA18834F9F488A58433E1F489A5833310
:101A6000C9F470E060E088EE93E00E941609A99640
:101A70000FB6F894DEBF0FBECDBFDF91CF911F919F
:101A80000F91FF90EF90DF90CF90BF90AF909F901D
:101A90008F9008958AE791E00E945007FFCF1F9230
:101AA0000F920FB60F9211242F933F934F935F9392
:101AB0006F937F938F939F93AF93BF93EF93FF9316
:101AC00089EF92E00E944401FF91EF91BF91AF91A5
:101AD0009F918F917F916F915F914F913F912F9146
:101AE0000F900FBE0F901F9018951F920F920FB678
:101AF0000F9211242F938F939F93EF93FF93E09175
:101B00000903F0910A038081E0910F03F091100323
:101B100082FD1BC09081809112038F5F8F73209193
:101B20001303821741F0E0911203F0E0E750FD4FFC
:101B3000958F80931203FF91EF919F918F912F9139
:101B40000F900FBE0F901F9018958081F4CF1F92B9
:101B50000F920FB60F9211242F933F938F939F9361
:101B6000AF93BF9380914F0290915002A091510288
:101B7000B091520230914E0223E0230F2D3758F5D9
:101B80000196A11DB11D20934E0280934F029093A8
:101B90005002A0935102B09352028091530290914F
:101BA0005402A0915502B09156020196A11DB11D9B
:101BB0008093530290935402A0935502B09356021F
:101BC000BF91AF919F918F913F912F910F900FBE39
:101BD0000F901F90189526E8230F0296A11DB11DA6
:101BE000D2CF1F920F920FB60F9211242F933F93D3
:101BF0004F935F936F937F938F939F93AF93BF9315
:101C0000EF93FF938091B900887F803609F44AC032
:101C1000F0F5883209F4A7C018F5803109F49BC0AB
:101C2000B8F4882309F4F9C0883009F494C0FF910E
:101C3000EF91BF91AF919F918F917F916F915F9144
:101C40004F913F912F910F900FBE0F901F901895BD
:101C5000883109F488C0803251F78093CD0214C0D6
:101C6000803409F49DC040F48033B9F38833F9F629
:101C70008093CD0285ECB0C0803509F485C08835ED
:101C800009F496C0883499F60E94F709D0CF8839B4
:101C900009F48CC038F5883729F050F4883611F0F3
:101CA000803729F683E08093CF0210924D0257C00F
:101CB000883809F47BC0803919F0803809F0B7CF33
:101CC00080914D02803208F071C0E0914D0281E0B8
:101CD0008E0F80934D028091BB00F0E0E35DFD4FDD
:101CE00080833DC0803B39F0E0F4803A09F479C04C
:101CF000883A09F09CCF84E08093CF0210922A02A8
:101D000010922902E0912702F09128020995809112
:101D1000290281110FC081E08093290210920702ED
:101D200009C0803C09F4A6CF883C09F4A3CF883BC6
:101D300009F07DCFE0912A0281E08E0F80932A0284
:101D4000F0E0E95FFD4F80818093BB0090912A0213
:101D50008091290229C08091AA028093BB0085EC62
:101D60008093BC0064CF9091CC028091CB029817F5
:101D700058F5E091CC0281E08E0F8093CC02F0E028
:101D8000E555FD4F8081E9CFE091CC0281E08E0FD7
:101D90008093CC028091BB00F0E0E555FD4F80833D
:101DA0009091CC028091CB029817C8F285E8D8CFE9
:101DB000E091CC0281E08E0F8093CC028091BB0039
:101DC000F0E0E555FD4F80838091CE0281115CCF1C
:101DD00081E08093A90284EA8093BC001092CF0234
:101DE00026CF85EC8093BC001092CF0280914D02EB
:101DF000803230F4E0914D02F0E0E35DFD4F10825F
:101E000060914D0270E0E0912B02F0912C028DE286
:101E100092E0099510924D020ACF1092CD0234CF74
:101E2000E9EFF2E01382128288EE93E0A0E0B0E0E6
:101E300084839583A683B78322E131E031832083B5
:101E400025EC30E03587248724EC30E0378726877F
:101E500020EC30E0318B208B21EC30E0338B228B77
:101E600022EC30E0358B248B26EC30E0378B268B50
:101E7000118E128E138E148EE6E9F3E01382128215
:101E800084839583A683B78384E291E091838083E2
:101E9000E2EAF3E016821782108611861286138614
:101EA0001486158616861786108A118A128A138A56
:101EB000148A158AE8EEF3E086E391E0918380834B
:101EC00089E390E3A0E0B0E084879587A687B78791
:101ED0001386148213821682158210861782089543
:101EE000789484B5826084BD84B5816084BD85B5F5
:101EF000826085BD85B5816085BD80916E00816001
:101F000080936E00109281008091810082608093A6
:101F100081008091810081608093810080918000A8
:101F20008160809380008091B10084608093B100D3
:101F30008091B00081608093B00080917A008460CD
:101F400080937A0080917A00826080937A008091F9
:101F50007A00816080937A0080917A008068809313
:101F60007A001092C1000E94050CC0E0D0E089EF19
:101F700092E00E942401892B21F189EF92E00E94D6
:101F800002018D3609F4A7C02CF5833509F4A0C0F1
:101F9000883609F4D7C02091A7023091A8022E34C8
:101FA00031057CF4A9014F5F5F4F5093A802409325
:101FB000A702295A3D4FF9018083495A5D4FFA0122
:101FC00010822097A1F20E943001882381F20E94A2
:101FD0000000CDCF803709F4A6C08237E1F687E54F
:101FE00092E00E9447114C010E94AB0B6B017C01F7
:101FF0008BEA91E00E94FF0697FC8FC081EC91E094
:102000000E94FF0616E0092C000CAA08BB084AE053
:10201000C501B401B7FE0DC06DE289EF92E00E94E8
:10202000660166277727CB01681979098A099B0918
:102030004AE00E940C078EEC91E00E94500760E09D
:10204000812F0E94D3010E94B3022B013C010E9408
:10205000AB0B9B01AC01C701B6010E94B3126B012F
:102060007C0120E030E0A9010E945A14181624F0E7
:10207000F7FAF094F7F8F09420E030E044E353E40A
:10208000C701B6010E945A14181654F4A70196010C
:1020900060E070E084EB93E40E94B3126B017C017A
:1020A000C501B4010E947411A70196010E946D112F
:1020B00087FF2CC00E94B30264197509860997092D
:1020C000683E73408105910508F161E0812F1CC0D5
:1020D0000E94050C76CF87E592E00E944711F82E0A
:1020E000192F60E083E00E94D3016F2D712F77FFDD
:1020F00003C0719561957109072E000C880B990B2F
:102100000E94800261E083E00E94D3011092A80245
:102110001092A7021092570254CF88EC91E00E94CF
:10212000FF0615E070CF60E082E00E94D30164E614
:1021300070E080E090E00E94800261E082E00E9416
:10214000D3013FCF0E94AB0B6B017C01AC019B0123
:102150000E946B14882349F088ED91E00E94FF06ED
:1021600080E491E00E94FF062CCF46015701E894DD
:10217000B7F82FEF3FEF4FE75FE7C501B4010E94CB
:102180006B1481110DC02FEF3FEF4FE75FE7C501E3
:10219000B4010E946D1118161CF48CED91E0DECF95
:1021A0002FEF3FEF4FE75FE4C701B6010E945A14DB
:1021B00018161CF480EE91E0D1CF2FEF3FEF4FE7E0
:1021C0005FECC701B6010E946D1187FDF3CF20E0DF
:1021D00030E0A901C701B6010E946D1187FF09C057
:1021E0006DE289EF92E00E946601F7FAF094F7F849
:1021F000F0942AE037ED43EA5BE3C701B6010E94A1
:10220000B4124B015C010E9404146B017C010E941A
:1022100072119B01AC01C501B4010E94B3124B01C4
:102220005C014AE0C701B6010E940C076EE289EF2B
:1022300092E00E94660120E030E040E251E4C501F6
:10224000B4010E94D3114B015C010E9404146B0184
:10225000F12CE12C4AE0C701B6010E940C07C7012E
:10226000B6010E9472119B01AC01C501B4010E942C
:10227000B31220E030E040E251E40E94D3110E940A
:10228000041490E080E04AE00E940C0769CFFC0152
:1022900088279927E89421912032E9F3293010F01A
:1022A0002E30C8F32B3241F02D3239F4689404C03B
:1022B0000E946511820F911D219120532A30C0F395
:1022C0001EF4909581959F4F08957AE0979F902DE9
:1022D000879F802D910D112408950E94AF1108F45D
:1022E00081E00895E89409C097FB3EF490958095AD
:1022F000709561957F4F8F4F9F4F9923A9F0F92FCC
:1023000096E9BB279395F695879577956795B79549
:10231000F111F8CFFAF4BB0F11F460FF1BC06F5F2F
:102320007F4F8F4F9F4F16C0882311F096E911C041
:10233000772321F09EE8872F762F05C0662371F062
:1023400096E8862F70E060E02AF09A95660F771F76
:10235000881FDAF7880F9695879597F90895990F52
:102360000008550FAA0BE0E8FEEF16161706E8075F
:10237000F907C0F012161306E407F50798F0621B80
:10238000730B840B950B39F40A2661F0232B242B55
:10239000252B21F408950A2609F4A140A6958FEF74
:1023A000811D811D08950E94E6110C9457120E9410
:1023B000491238F00E94501220F0952311F00C942D
:1023C00040120C94461211240C948B120E94681235
:1023D00070F3959FC1F3950F50E0551F629FF00178
:1023E000729FBB27F00DB11D639FAA27F00DB11D91
:1023F000AA1F649F6627B00DA11D661F829F22271A
:10240000B00DA11D621F739FB00DA11D621F839FA0
:10241000A00D611D221F749F3327A00D611D231F76
:10242000849F600D211D822F762F6A2F11249F57C4
:1024300050409AF0F1F088234AF0EE0FFF1FBB1FC7
:10244000661F771F881F91505040A9F79E3F510586
:1024500080F00C9440120C948B125F3FE4F3983E92
:10246000D4F3869577956795B795F795E7959F5F30
:10247000C1F7FE2B880F911D9695879597F90895C2
:1024800097F99F6780E870E060E008959FEF80EC27
:10249000089500240A9416161706180609060895CA
:1024A00000240A9412161306140605060895092E30
:1024B0000394000C11F4882352F0BB0F40F4BF2B9F
:1024C00011F460FF04C06F5F7F4F8F4F9F4F0895DF
:1024D00057FD9058440F551F59F05F3F71F04795D5
:1024E000880F97FB991F61F09F3F79F087950895BA
:1024F000121613061406551FF2CF4695F1DF08C0D9
:10250000161617061806991FF1CF869571056105F5
:1025100008940895E894BB2766277727CB0197F99D
:102520000895A1E21A2EAA1BBB1BFD010DC0AA1F14
:10253000BB1FEE1FFF1FA217B307E407F50720F02C
:10254000A21BB30BE40BF50B661F771F881F991FA7
:102550001A9469F760957095809590959B01AC01F0
:10256000BD01CF0108955058BB27AA270E94CB1266
:102570000C9457120E94491238F00E94501220F019
:1025800039F49F3F19F426F40C9446120EF4E095AA
:10259000E7FB0C944012E92F0E94681258F3BA1717
:1025A000620773078407950720F079F4A6F50C9469
:1025B0008A120EF4E0950B2EBA2FA02D0B01B90153
:1025C00090010C01CA01A0011124FF27591B99F0A9
:1025D000593F50F4503E68F11A16F040A22F232FB5
:1025E000342F4427585FF3CF469537952795A79505
:1025F000F0405395C9F77EF41F16BA0B620B730BAC
:10260000840BBAF09150A1F0FF0FBB1F661F771F1C
:10261000881FC2F70EC0BA0F621F731F841F48F4D1
:10262000879577956795B795F7959E3F08F0B0CF5A
:102630009395880F08F09927EE0F97958795089541
:102640000E94491260F080E891E009F49EEF0E9438
:10265000501228F040E851E071F45EEF0CC00C9489
:1026600046120C948A12E92FE0780E94681240F317
:10267000092E052AB1F3261737074807590738F0FE
:102680000E2E07F8E02569F0E025E0640AC0EF634C
:1026900007F8009407FADB01B9019D01DC01CA01CA
:1026A000AD01EF930E94A9130E9457120E94631379
:1026B0005F91552339F02BED3FE049E450FD49ECA3
:1026C0000C94B4120895DF93DD27B92FBF7740E84B
:1026D0005FE31616170648075B0718F4D92F0E9408
:1026E0005F149F938F937F936F930E946714E8E624
:1026F000F0E00E9433140E9457122F913F914F91A6
:102700005F910E94E611DD2351F09058A2EA2AED74
:102710003FE049EC5FE3D0785D270E94CB12DF9168
:102720000C9457120E94A6130C9457120E94501238
:1027300058F00E94491240F029F45F3F29F00C94B0
:10274000401251110C948B120C9446120E94681284
:1027500068F39923B1F3552391F3951B550BBB27D0
:10276000AA2762177307840738F09F5F5F4F220F15
:10277000331F441FAA1FA9F335D00E2E3AF0E0E80C
:1027800032D091505040E695001CCAF72BD0FE2F56
:1027900029D0660F771F881FBB1F261737074807EA
:1027A000AB07B0E809F0BB0B802DBF01FF279358A2
:1027B0005F4F3AF09E3F510578F00C9440120C9414
:1027C0008B125F3FE4F3983ED4F386957795679537
:1027D000B795F7959F5FC9F7880F911D96958795D7
:1027E00097F90895E1E0660F771F881FBB1F6217F6
:1027F00073078407BA0720F0621B730B840BBA0BB4
:10280000EE1F88F7E09508950E94701288F09F5798
:1028100098F0B92F9927B751B0F0E1F0660F771F04
:10282000881F991F1AF0BA95C9F714C0B13091F0FA
:102830000E948A12B1E008950C948A12672F782FB3
:102840008827B85F39F0B93FCCF3869577956795BF
:10285000B395D9F73EF490958095709561957F4F2B
:102860008F4F9F4F0895DF93CF931F930F93FF9246
:10287000EF92DF927B018C01689406C0DA2EEF01A3
:102880000E94E611FE01E894A591259135914591AC
:102890005591A6F3EF010E94CB12FE019701A8010A
:1028A000DA9469F7DF90EF90FF900F911F91CF912D
:1028B000DF9108950E94AF1108F48FEF08959B01F6
:1028C000AC0160E070E080E89FE30C9492139B0100
:1028D000AC010C94D3110E94AF11880B990B089591
:1028E000EE0FFF1F0590F491E02D09940F931F93B5
:1028F000CF93DF938230910510F482E090E0E09175
:10290000FC03F091FD0330E020E0B0E0A0E0309760
:1029100099F42115310509F44AC0281B390B2430DC
:102920003105D8F58A819B816115710589F1FB011B
:1029300093838283FE0111C0408151810281138102
:1029400048175907E0F04817590799F4109761F0B4
:1029500012960C93129713961C933296CF01DF9127
:10296000CF911F910F9108950093FC031093FD03E5
:10297000F4CF2115310551F04217530738F0A90162
:10298000DB019A01BD01DF01F801C1CFEF01F9CFF1
:102990009093FD038093FC03CDCFFE01E20FF31F64
:1029A000819391932250310939832883D7CF209185
:1029B000FA033091FB03232B41F420910A0130915B
:1029C0000B013093FB032093FA032091080130910F
:1029D00009012115310541F42DB73EB740910C0195
:1029E00050910D01241B350BE091FA03F091FB038C
:1029F000E217F307A0F42E1B3F0B2817390778F0D6
:102A0000AC014E5F5F4F2417350748F04E0F5F1F34
:102A10005093FB034093FA03819391939FCFF0E08F
:102A2000E0E09CCFCF93DF930097E9F0FC01329771
:102A300013821282A091FC03B091FD03ED0130E0FE
:102A400020E01097A1F420813181820F931F209103
:102A5000FA033091FB032817390709F061C0F0939E
:102A6000FB03E093FA03DF91CF910895EA01CE17BB
:102A7000DF07E8F54A815B819E0141155105B1F7F9
:102A8000E901FB83EA8349915991C40FD51FEC17E3
:102A9000FD0761F4808191810296840F951FE90101
:102AA00099838883828193819B838A83F0E0E0E02D
:102AB00012968D919C9113970097B9F52D913C91A9
:102AC0001197CD010296820F931F2091FA03309146
:102AD000FB032817390739F6309751F51092FD039B
:102AE0001092FC03B093FB03A093FA03BCCFD383F3
:102AF000C28340815181840F951FC817D90761F4A3
:102B00004E5F5F4F88819981480F591F51834083E1
:102B10008A819B81938382832115310509F0B0CF8F
:102B2000F093FD03E093FC039ECFFD01DC01C0CFD9
:0A2B300013821282D7CFF894FFCF72
:102B3A0000007544008089440000FE038000000004
:102B4A0000006601C600F300B30124010201160168
:102B5A00000000006E0441049D0417043A0427048F
:102B6A00180400000000FB062F0AFC06700A310A4E
:102B7A000D0A004C534D333033444C48204D6167A5
:102B8A0000564D4450565F317C315F564D44505685
:102B9A000A00564D4450525F0044657669636520C9
:102BAA00636F6E6E6563746564004F6F6F70732C2C
:102BBA00206E6F204C534D33303320646574656347
:102BCA00746564202E2E2E20436865636B20796F0E
:102BDA00757220776972696E672100526F74617429
:102BEA00696E6720776865656C2063686169722021
:102BFA0000726967687420006C656674200020643E
:102C0A006567726565732E006E616E00696E660097
:042C1A006F7666006B
:107E0000112484B714BE81FFF0D085E080938100F7
:107E100082E08093C00088E18093C10086E0809377
:107E2000C20080E18093C4008EE0C9D0259A86E02C
:107E300020E33CEF91E0309385002093840096BBD3
:107E4000B09BFECF1D9AA8958150A9F7CC24DD24C4
:107E500088248394B5E0AB2EA1E19A2EF3E0BF2EE7
:107E6000A2D0813461F49FD0082FAFD0023811F036
:107E7000013811F484E001C083E08DD089C08234E0
:107E800011F484E103C0853419F485E0A6D080C0E4
:107E9000853579F488D0E82EFF2485D0082F10E0AE
:107EA000102F00270E291F29000F111F8ED06801E7
:107EB0006FC0863521F484E090D080E0DECF843638
:107EC00009F040C070D06FD0082F6DD080E0C81688
:107ED00080E7D80618F4F601B7BEE895C0E0D1E017
:107EE00062D089930C17E1F7F0E0CF16F0E7DF06D8
:107EF00018F0F601B7BEE89568D007B600FCFDCFD4
:107F0000A601A0E0B1E02C9130E011968C91119780
:107F100090E0982F8827822B932B1296FA010C0160
:107F200087BEE89511244E5F5F4FF1E0A038BF0790
:107F300051F7F601A7BEE89507B600FCFDCF97BE46
:107F4000E89526C08437B1F42ED02DD0F82E2BD052
:107F50003CD0F601EF2C8F010F5F1F4F84911BD097
:107F6000EA94F801C1F70894C11CD11CFA94CF0C13
:107F7000D11C0EC0853739F428D08EE10CD085E9AC
:107F80000AD08FE07ACF813511F488E018D01DD067
:107F900080E101D065CF982F8091C00085FFFCCF94
:107FA0009093C60008958091C00087FFFCCF809118
:107FB000C00084FD01C0A8958091C6000895E0E648
:107FC000F0E098E1908380830895EDDF803219F02E
:107FD00088E0F5DFFFCF84E1DECF1F93182FE3DFCA
:107FE0001150E9F7F2DF1F91089580E0E8DFEE27F6
:047FF000FF270994CA
:027FFE00040479
:0400000300007E007B
:00000001FF