:100000000C945D000C9485000C9485000C94850084
:100010000C9485000C9485000C9485000C9485004C
:100020000C9485000C9485000C9485000C9485003C
:100030000C9485000C9485000C9485000C9485002C
:100040000C949D030C9485000C946B030C94450355
:100050000C9485000C9485000C9485000C9485000C
:100060000C9485000C9485000000000024002700FB
:100070002A0000000000250028002B0004040404CE
:100080000404040402020202020203030303030342
:10009000010204081020408001020408102001021F
:1000A00004081020000000080002010000030407FB
:1000B0000000000000000000E70311241FBECFEF86
:1000C000D8E0DEBFCDBF22E0A8E6B1E001C01D92BE
:1000D000A436B207E1F711E0A0E0B1E0E2E9FDE00B
:1000E00002C005900D92A836B107D9F710E0CDE512
:1000F000D0E004C02197FE010E94C106CC35D10793
:10010000C9F70E9426040C94C7060C940000E1E88D
:10011000F1E0A089B18982E08C93A485B5851C9219
:10012000A685B78580E18C93108EA489B58986E079
:100130008C93A289B3898C9180618C93A289B389B5
:100140008C9188608C93A289B3898C9180688C9300
:100150000288F389E02D80818F7D80830895AF929E
:10016000BF92CF92DF92EF92FF920F931F93CF93A4
:10017000DF936C017B018B01040F151FEB015E0106
:10018000AE18BF08C017D10759F06991D601ED919B
:10019000FC910190F081E02DC6010995892B79F73A
:1001A000C501DF91CF911F910F91FF90EF90DF90EC
:1001B000CF90BF90AF900895FC01538D448D252FB3
:1001C00030E0842F90E0821B930B541710F0CF96F1
:1001D000089501970895FC01918D828D981761F023
:1001E000A28DAE0FBF2FB11D5D968C91928D9F5F3A
:1001F0009F73928F90E008958FEF9FEF0895FC0119
:10020000918D828D981731F0828DE80FF11D858DCB
:1002100090E008958FEF9FEF0895FC01918D228D5E
:10022000892F90E0805C9F4F821B91098F739927E3
:10023000089581E891E00E940D0121E0892B09F4E5
:1002400020E0822F089580E090E0892B29F00E9421
:10025000190181110C9400000895FC01A48DA80FD0
:10026000B92FB11DA35ABF4F2C91848D90E00196F8
:100270008F739927848FA689B7892C93A089B18918
:100280008C91837080648C93938D848D981306C0B9
:100290000288F389E02D80818F7D80830895EF921D
:1002A000FF920F931F93CF93DF93EC0181E0888F30
:1002B0009B8D8C8D98131AC0E889F989808185FF00
:1002C00015C09FB7F894EE89FF896083E889F989A2
:1002D00080818370806480839FBF81E090E0DF91A4
:1002E000CF911F910F91FF90EF900895F62E0B8DF7
:1002F00010E00F5F1F4F0F731127E02E8C8D8E11B2
:100300000CC00FB607FCFACFE889F989808185FF18
:10031000F5CFCE010E942D01F1CFEB8DEC0FFD2F1B
:10032000F11DE35AFF4FF0829FB7F8940B8FEA89D3
:10033000FB8980818062CFCFCF93DF93EC01888DE2
:100340008823B9F0AA89BB89E889F9898C9185FD50
:1003500003C0808186FD0DC00FB607FCF7CF8C91DE
:1003600085FFF2CF808185FFEDCFCE010E942D0168
:10037000E9CFDF91CF91089590E0FC01EC55FF4F5C
:100380002491FC01E057FF4F3491FC01E458FF4FEA
:10039000E491EE23C9F0222339F0233001F1A8F4CF
:1003A000213019F1223029F1F0E0EE0FFF1FEE5855
:1003B000FF4FA591B4918FB7F894EC91611126C0CD
:1003C00030953E233C938FBF08952730A9F0283005
:1003D000C9F0243049F7809180008F7D03C080915F
:1003E00080008F7780938000DFCF84B58F7784BDC6
:1003F000DBCF84B58F7DFBCF8091B0008F7780936A
:10040000B000D2CF8091B0008F7DF9CF3E2BDACFF4
:10041000482F50E0FA01E057FF4F9491FA01E45859
:10042000FF4F2491222399F030E0220F331FF9016E
:10043000E859FF4FA591B491F901EE58FF4F25916E
:1004400034912FB7F894EC91E92BEC932FBF611501
:10045000710519F460E00C94BC016F3F710511F453
:1004600061E0F9CFFA01EC55FF4FE491E33019F167
:1004700040F4E130B1F0E230C9F06038710584F742
:10048000E9CFE73011F1E83041F1E430B1F7809184
:10049000800080628093800070938B0060938A005C
:1004A000089584B5806884BD67BD089584B5806271
:1004B00084BD68BD0895809180008068809380002D
:1004C000709389006093880008958091B0008068DF
:1004D0008093B0006093B30008958091B000806273
:1004E0008093B0006093B40008953FB7F894809172
:1004F0006D0190916E01A0916F01B091700126B5D0
:10050000A89B05C02F3F19F00196A11DB11D3FBF4B
:10051000BA2FA92F982F8827BC01CD01620F711D1A
:10052000811D911D42E0660F771F881F991F4A9514
:10053000D1F708952FB7F8946091690170916A011D
:1005400080916B0190916C012FBF0895FC01019087
:100550000020E9F73197AF01481B590BBC0181E836
:1005600091E00C94AF008F929F92AF92BF920F9345
:100570001F93CF93DF93CDB7DEB7A1970FB6F89453
:10058000DEBF0FBECDBF19A2423008F44AE08E0193
:100590000F5D1F4F842E912CB12CA12CA50194012D
:1005A0000E949F06E62FB901CA01EA30F4F4E05D2B
:1005B000D801EE938D01232B242B252B79F790E086
:1005C00080E0109719F0CD010E94A602A1960FB607
:1005D000F894DEBF0FBECDBFDF91CF911F910F9179
:1005E000BF90AF909F908F900895E95CE1CFEF921C
:1005F000FF920F931F93CF93DF9300D000D0CDB71E
:10060000DEB781E891E00E94EB0081E891E00E9472
:10061000EB008E010F5F1F4F78018A3341F0F80124
:1006200081938F0181E891E00E94EB00F6CFC70132
:100630000E947906182F81E891E00E94EB00805318
:10064000990B8230910520F4682F812F0E94BC0104
:1006500081E891E00E94EB008A3011F08D30C1F703
:1006600081E891E00E94FF008A3021F481E891E066
:100670000E94EB000F900F900F900F90DF91CF91A1
:100680001F910F91FF90EF9008951F920F920FB658
:100690000F9211242F933F934F935F936F937F9308
:1006A0008F939F93AF93BF93EF93FF9381E891E074
:1006B0000E942D01FF91EF91BF91AF919F918F917A
:1006C0007F916F915F914F913F912F910F900FBE4E
:1006D0000F901F9018951F920F920FB60F92112432
:1006E0002F938F939F93EF93FF93E0919101F0915C
:1006F00092018081E0919701F091980182FD1BC0E9
:10070000908180919A018F5F8F7320919B01821756
:1007100041F0E0919A01F0E0EF57FE4F958F809302
:100720009A01FF91EF919F918F912F910F900FBEA2
:100730000F901F9018958081F4CF1F920F920FB6E3
:100740000F9211242F933F938F939F93AF93BF9357
:100750008091690190916A01A0916B01B0916C0147
:100760003091680123E0230F2D3758F50196A11D24
:10077000B11D209368018093690190936A01A09351
:100780006B01B0936C0180916D0190916E01A0910D
:100790006F01B09170010196A11DB11D80936D0193
:1007A00090936E01A0936F01B0937001BF91AF91D0
:1007B0009F918F913F912F910F900FBE0F901F909F
:1007C000189526E8230F0296A11DB11DD2CFE1E8AE
:1007D000F1E01382128288EE93E0A0E0B0E084831F
:1007E0009583A683B78386E091E09183808385EC2F
:1007F00090E09587848784EC90E09787868780ECEB
:1008000090E0918B808B81EC90E0938B828B82ECDB
:1008100090E0958B848B86EC90E0978B868B118E85
:10082000128E138E148EEEE1F2E01682178210867D
:100830001186128613861486158616861786108AE8
:10084000118A128A138A148A158A0895789484B5B5
:10085000826084BD84B5816084BD85B5826085BDBC
:1008600085B5816085BD80916E00816080936E004A
:10087000109281008091810082608093810080913C
:1008800081008160809381008091800081608093ED
:1008900080008091B10084608093B1008091B000AD
:1008A00081608093B00080917A00846080937A00A8
:1008B00080917A00826080937A0080917A008160D2
:1008C00080937A0080917A00806880937A001092F9
:1008D000C1001092600210926102109262021092A6
:1008E00063021092200210922102109222021092B2
:1008F00023020E949A026B017C014B015C0128EBF0
:10090000820E2BE0921EA11CB11C0E949A026C1553
:100910007D058E059F0528F086169706A806B90660
:10092000A0F70E9475024B015C0188EEC82E83E09F
:10093000D82EE12CF12C0E947502681979098A09D8
:100940009B09683E734081059105A8F331E0C31A05
:10095000D108E108F10848EE840E43E0941EA11C82
:10096000B11CC114D104E104F10429F70E948700ED
:100970000E949A02609320027093210280932202C7
:100980009093230284E191E00E94A6020E949A02C1
:100990006B017C014B015C018AE0880E911CA11C5B
:1009A000B11C0E949A026C157D058E059F0528F0EA
:1009B00086169706A806B906A0F781E08093340250
:1009C0000E949A0260932002709321028093220277
:1009D0009093230285E291E00E94A6020E94870084
:1009E0008CE291E00E94A60280E591E00E94A602BE
:1009F000609100017091010185E00E9408020E944F
:100A00009A02672B682B692B09F4F3C00E949A02A3
:100A10000091710110917201209173013091740164
:100A2000601771078207930708F41AC100917101DA
:100A30001091720120917301309174016B017C015E
:100A4000C01AD10AE20AF30A970186010A3F11058A
:100A50002105310508F4D5C06093710170937201CE
:100A6000809373019093740184EF91E0A0E0B0E073
:100A700080932C0290932D02A0932E02B0932F020C
:100A80001092300210923102109232021092330210
:100A90008091240290912502A0912602B091270214
:100AA0008093280290932902A0932A02B0932B02EC
:100AB0000E949A026093240270932502809326027A
:100AC0009093270281E891E00E94FF00843611F4A0
:100AD0000E94F7020E949A02609320027093210202
:100AE00080932202909323020E949A026B017C0160
:100AF00083E591E00E94A6024AE061E070E080E0B8
:100B000090E00E94B3028AE591E00E94A6024AE0CA
:100B1000C701B6010E94B3028CE591E00E94A602D3
:100B20008091240290912502A0912602B091270283
:100B3000A7019601281B390B4A0B5B0BCA01B901AF
:100B40004AE00E94B3028CE591E00E94A602609107
:100B50002402709125028091260290912702009133
:100B600028021091290220912A0230912B02601B49
:100B7000710B820B930B4AE00E94B3028EE591E069
:100B80000E94A6020E949A024AE00E94B30280E6F6
:100B900091E00E94A60280E591E00E94A6020E94D8
:100BA0009A026B017C014B015C0135E0830E911CC4
:100BB000A11CB11C0E949A026C157D058E059F0533
:100BC00028F086169706A806B906A0F781E891E0F6
:100BD0000E94FF00843611F40E94F7020E949A02DC
:100BE000609324027093250280932602909327023B
:100BF00008C00E949A02623071058105910508F0D3
:100C000005CFC0E0D0E00FE710E081E891E00E945E
:100C10000D01892BE1F081E891E00E94EB0085361F
:100C200079F120917F01309180012A3031050CF556
:100C3000A9014F5F5F4F5093800140937F012B5874
:100C40003E4FF90180834B585E4FFA011082209786
:100C5000E1F20E9419018823C1F20E940000D5CF61
:100C6000609371017093720180937301909374018A
:100C7000DDCE109275011092800110927F01E7CFB6
:100C800085E791E00E9479068F3F910509F060F5B4
:100C90009093010180930001C0900001D090010168
:100CA0000D2C000CEE08FF084AE0C701B601F7FE64
:100CB0000DC06DE281E891E00E944F016627772721
:100CC000CB016C197D098E099F094AE00E94B3028D
:100CD00080E591E00E94A6026091000170910101FF
:100CE00085E00E940802B3CF109301010093000138
:100CF000D3CFFC0188279927E89421912032E9F38A
:100D0000293010F02E30C8F32B3241F02D3239F457
:100D1000689404C00E949706820F911D2191205370
:100D20002A30C0F31EF4909581959F4F08957AE084
:100D3000979F902D879F802D910D11240895A1E2FA
:100D40001A2EAA1BBB1BFD010DC0AA1FBB1FEE1F45
:100D5000FF1FA217B307E407F50720F0A21BB30B90
:100D6000E40BF50B661F771F881F991F1A9469F70C
:100D700060957095809590959B01AC01BD01CF0168
:100D80000895EE0FFF1F0590F491E02D0994F8945B
:020D9000FFCF93
:100D92007F00000000004F01AF00DC009C010D014C
:100DA200EB00FF00564D4450565F317C315F564D8B
:100DB2004450560A00564D4450525F004243492067
:100DC200776865656C636861697220636F6E7472BF
:100DD2006F6C6C657220636F6E6E65637465640020
:100DE2000D0A00564D4450455F003A323A007C00ED
:080DF2005F564D44504500001E
:00000001FF
