:100000000C9458000C9480000C9480000C94800098
:100010000C9480000C9480000C9480000C94800060
:100020000C9480000C9480000C9480000C94800050
:100030000C9480000C9480000C9480000C94800040
:100040000C940D030C9480000C94DB020C94B5020C
:100050000C9480000C9480000C9480000C94800020
:100060000C9480000C948000000000002500280003
:100070002B00040404040404040402020202020229
:10008000030303030303010204081020408001025C
:1000900004081020010204081020000000080002DB
:1000A00001000003040700000000000000005703E7
:1000B00011241FBECFEFD8E0DEBFCDBF22E0A2E407
:1000C000B1E001C01D92A233B207E1F711E0A0E058
:1000D000B1E0E8EFFBE002C005900D92A234B10759
:1000E000D9F710E0C8E5D0E004C02197FE010E94D6
:1000F000F405C735D107C9F70E9496030C94FA0599
:100100000C940000AF92BF92CF92DF92EF92FF92D9
:100110000F931F93CF93DF936C017B018B01040F2F
:10012000151FEB015E01AE18BF08C017D10759F0CB
:100130006991D601ED91FC910190F081E02DC6010D
:100140000995892B79F7C501DF91CF911F910F9107
:10015000FF90EF90DF90CF90BF90AF900895FC019B
:10016000538D448D252F30E0842F90E0821B930B1C
:10017000541710F0CF96089501970895FC01918DC2
:10018000828D981761F0A28DAE0FBF2FB11D5D96C5
:100190008C91928D9F5F9F73928F90E008958FEF67
:1001A0009FEF0895FC01918D828D981731F0828D1B
:1001B000E80FF11D858D90E008958FEF9FEF089572
:1001C000FC01918D228D892F90E0805C9F4F821BD6
:1001D00091098F73992708958FE491E00E94E000C0
:1001E00021E0892B09F420E0822F089580E090E03F
:1001F000892B29F00E94EC0081110C9400000895D5
:10020000FC01A48DA80FB92FB11DA35ABF4F2C918B
:10021000848D90E001968F739927848FA689B78982
:100220002C93A089B1898C91837080648C93938D79
:10023000848D981306C00288F389E02D80818F7D1C
:1002400080830895EF92FF920F931F93CF93DF93D4
:10025000EC0181E0888F9B8D8C8D98131AC0E88902
:10026000F989808185FF15C09FB7F894EE89FF89D1
:100270006083E889F98980818370806480839FBF6F
:1002800081E090E0DF91CF911F910F91FF90EF906F
:100290000895F62E0B8D10E00F5F1F4F0F7311277F
:1002A000E02E8C8D8E110CC00FB607FCFACFE889BA
:1002B000F989808185FFF5CFCE010E940001F1CF41
:1002C000EB8DEC0FFD2FF11DE35AFF4FF0829FB72E
:1002D000F8940B8FEA89FB8980818062CFCFCF931E
:1002E000DF93EC01888D8823B9F0AA89BB89E8895E
:1002F000F9898C9185FD03C0808186FD0DC00FB604
:1003000007FCF7CF8C9185FFF2CF808185FFEDCF81
:10031000CE010E940001E9CFDF91CF9108953FB750
:10032000F8948091470190914801A0914901B091C2
:100330004A0126B5A89B05C02F3F19F00196A11DC3
:10034000B11D3FBFBA2FA92F982F8827BC01CD011F
:10035000620F711D811D911D42E0660F771F881F7E
:10036000991F4A95D1F708952FB7F89460914301EA
:100370007091440180914501909146012FBF0895ED
:10038000FC0101900020E9F73197AF01481B590BA0
:10039000BC018FE491E00C9482008F929F92AF9207
:1003A000BF920F931F93CF93DF93CDB7DEB7A19783
:1003B0000FB6F894DEBF0FBECDBF19A2423008F4CD
:1003C0004AE08E010F5D1F4F842E912CB12CA12C81
:1003D000A50194010E94D205E62FB901CA01EA30B5
:1003E000F4F4E05DD801EE938D01232B242B252B13
:1003F00079F790E080E0109719F0CD010E94C001DC
:10040000A1960FB6F894DEBF0FBECDBFDF91CF919E
:100410001F910F91BF90AF909F908F900895E95CCE
:10042000E1CFEF92FF920F931F93CF93DF9300D012
:1004300000D0CDB7DEB78FE491E00E94BE008FE41C
:1004400091E00E94BE008E010F5F1F4F78018A333A
:1004500041F0F80181938F018FE491E00E94BE008A
:10046000F6CFC7010E94AC058C018FE491E00E9499
:10047000BE00282F2053330BA9012230310558F537
:100480001127F801E656FF4F8491F801EA57FF4F14
:100490009491F801EE58FF4FE491EE23E1F08823A8
:1004A00051F0833009F43DC090F5813009F43FC02C
:1004B000823009F440C0F0E0EE0FFF1FE859FF4F13
:1004C000A591B4918FB7F894EC91411141C09095EA
:1004D0009E239C938FBF8FE491E00E94BE008A30E0
:1004E00011F08D30C1F78FE491E00E94D2008A3084
:1004F00089F58FE491E00F900F900F900F90DF91AE
:10050000CF911F910F91FF90EF900C94BE00873018
:10051000A9F08830C9F0843071F6809180008F7D19
:1005200003C0809180008F7780938000C4CF84B512
:100530008F7784BDC0CF84B58F7DFBCF8091B00015
:100540008F778093B000B7CF8091B0008F7DF9CFC7
:100550009E2BBFCF0F900F900F900F90DF91CF91F8
:100560001F910F91FF90EF9008951F920F920FB679
:100570000F9211242F933F934F935F936F937F9329
:100580008F939F93AF93BF93EF93FF938FE491E08B
:100590000E940001FF91EF91BF91AF919F918F91C8
:1005A0007F916F915F914F913F912F910F900FBE6F
:1005B0000F901F9018951F920F920FB60F92112453
:1005C0002F938F939F93EF93FF93E0915F01F091AF
:1005D00060018081E0916501F091660182FD1BC0A0
:1005E0009081809168018F5F8F73209169018217DC
:1005F00041F0E0916801F0E0E15BFE4F958F809360
:100600006801FF91EF919F918F912F910F900FBEF5
:100610000F901F9018958081F4CF1F920F920FB604
:100620000F9211242F933F938F939F93AF93BF9378
:100630008091430190914401A0914501B091460100
:100640003091420123E0230F2D3758F50196A11D6B
:10065000B11D209342018093430190934401A093E4
:100660004501B09346018091470190914801A091C6
:100670004901B0914A010196A11DB11D8093470126
:1006800090934801A0934901B0934A01BF91AF9163
:100690009F918F913F912F910F900FBE0F901F90C0
:1006A000189526E8230F0296A11DB11DD2CFEFE4C5
:1006B000F1E01382128288EE93E0A0E0B0E0848340
:1006C0009583A683B78384E091E09183808385EC52
:1006D00090E09587848784EC90E09787868780EC0C
:1006E00090E0918B808B81EC90E0938B828B82ECFD
:1006F00090E0958B848B86EC90E0978B868B118EA7
:10070000128E138E148EECEEF1E016821782108694
:100710001186128613861486158616861786108A09
:10072000118A128A138A148A158A0895789484B5D6
:10073000826084BD84B5816084BD85B5826085BDDD
:1007400085B5816085BD80916E00816080936E006B
:10075000109281008091810082608093810080915D
:10076000810081608093810080918000816080930E
:1007700080008091B10084608093B1008091B000CE
:1007800081608093B00080917A00846080937A00C9
:1007900080917A00826080937A0080917A008160F3
:1007A00080937A0080917A00806880937A0010921A
:1007B000C10010922E0210922F021092300210925D
:1007C00031021092EE011092EF011092F00110929E
:1007D000F1010E94B4016B017C014B015C0128EB2B
:1007E000820E2BE0921EA11CB11C0E94B4016C155C
:1007F0007D058E059F0528F086169706A806B90682
:10080000A0F70E948F014B015C0198EEC92E93E086
:10081000D92EE12CF12C0E948F01681979098A09DF
:100820009B09683E734081059105A8F331E0C31A26
:10083000D108E108F10848EE840E43E0941EA11CA3
:10084000B11CC114D104E104F10429F7E0915F0166
:10085000F091600182E08083E0915B01F0915C01A6
:100860001082E0915D01F0915E0180E18083109241
:100870006701E0916301F091640186E08083E0917B
:100880006101F0916201808180618083E09161016A
:10089000F0916201808188608083E0916101F09134
:1008A0006201808180688083E0916101F091620142
:1008B00080818F7D80830E94B4016093EE017093EC
:1008C000EF018093F0019093F10182E191E00E94A9
:1008D000C0010E94B4016B017C014B015C018AE004
:1008E000880E911CA11CB11C0E94B4016C157D05E1
:1008F0008E059F0528F086169706A806B906A0F76C
:1009000081E0809302020E94B4016093EE01709333
:10091000EF018093F0019093F10183E291E00E9456
:10092000C001C0E0D0E084EF882E99249394A12CDC
:10093000B12C0E94B401672B682B692B09F4F0C01D
:100940000E94B401C0904B01D0904C01E0904D0149
:10095000F0904E016C157D058E059F0508F4F3C0DF
:10096000C0904B01D0904C01E0904D01F0904E01B1
:100970009B01AC012C193D094E095F0969017A01FF
:100980003AEFC316D104E104F10408F4D1C0609336
:100990004B0170934C0180934D0190934E018092D6
:1009A000FA019092FB01A092FC01B092FD0110921D
:1009B000FE011092FF01109200021092010280913C
:1009C000F2019091F301A091F401B091F5018093AF
:1009D000F6019093F701A093F801B093F9010E94FA
:1009E000B4016093F2017093F3018093F40190934A
:1009F000F5018FE491E00E94D200843611F40E9448
:100A000011020E94B4016093EE017093EF01809394
:100A1000F0019093F1010E94B4016B017C018AE224
:100A200091E00E94C0014AE061E070E080E090E067
:100A30000E94CD0181E391E00E94C0014AE0C7011C
:100A4000B6010E94CD0183E391E00E94C001809134
:100A5000F2019091F301A091F401B091F501A70189
:100A60009601281B390B4A0B5B0BCA01B9014AE0FE
:100A70000E94CD0183E391E00E94C0016091F201E8
:100A80007091F3018091F4019091F501C090F6010D
:100A9000D090F701E090F801F090F9016C197D0910
:100AA0008E099F094AE00E94CD0185E391E00E94F2
:100AB000C0010E94B4014AE00E94CD0187E391E0A9
:100AC0000E94C0018EE391E00E94C0010E94B40127
:100AD0002B013C017C016B0135E0C30ED11CE11CF4
:100AE000F11C0E94B401641575058605970528F070
:100AF000C616D706E806F906A0F78FE491E00E9433
:100B0000D200843611F40E9411020E94B401609355
:100B1000F2017093F3018093F4019093F50108C002
:100B20000E94B401623071058105910508F008CF7B
:100B3000209709F4FECE0E94EC00882309F4F9CE38
:100B40000E940000F6CE60934B0170934C0180939D
:100B50004D0190934E0104CFFC0188279927E8941A
:100B600021912032E9F3293010F02E30C8F32B32D6
:100B700041F02D3239F4689404C00E94CA05820FF6
:100B8000911D219120532A30C0F31EF49095819538
:100B90009F4F08957AE0979F902D879F802D910D0C
:100BA00011240895A1E21A2EAA1BBB1BFD010DC042
:100BB000AA1FBB1FEE1FFF1FA217B307E407F5070D
:100BC00020F0A21BB30BE40BF50B661F771F881FE9
:100BD000991F1A9469F760957095809590959B017F
:100BE000AC01BD01CF010895EE0FFF1F0590F491F8
:080BF000E02D0994F894FFCFF9
:100BF8000000000022018200AF006F01E000BE008B
:100C0800D200564D4450565F317C315F564D4450AA
:100C1800560A00564D4450525F00564D4450455FA9
:100C2800003A323A007C005F564D445045000D0AA8
:020C38000000BA
:00000001FF
