:100000000C9474000C949C000C949C000C949C0028
:100010000C949C000C949C000C949C000C949C00F0
:100020000C949C000C949C000C949C000C949C00E0
:100030000C949C000C949C000C949C000C949C00D0
:100040000C94730D0C949C000C94410D0C941B0D9E
:100050000C949C000C949C000C949C000C949C00B0
:100060000C94BD0D0C949C00084AD73B3BCE016E0E
:1000700084BCBFFDC12F3D6C74319ABD56833DDAFF
:100080003D00C77F11BED9E4BB4C3E916BAAAABE0E
:10009000000000803F0000000000240027002A002C
:1000A00000000000250028002B00040404040404C0
:1000B0000404020202020202030303030303010217
:1000C00004081020408001020408102001020408E6
:1000D00010200000000800020100000304070000D7
:1000E000000000000000DC0E11241FBECFEFD8E09E
:1000F000DEBFCDBF24E0A0E7B2E001C01D92AC3668
:10010000B207E1F712E0A0E0B1E0E4E4FCE202C0F3
:1001100005900D92A037B107D9F710E0C4E7D0E001
:1001200004C02197FE010E94F514C337D107C9F717
:100130000E943C0F0C9420160C940000E7E6F3E0BC
:10014000A089B18982E08C93A485B5851C92A6858F
:10015000B78580E18C93108EA489B58986E08C9355
:10016000A289B3898C9180618C93A289B3898C9187
:1001700088608C93A289B3898C9180688C93028863
:10018000F389E02D80818F7D80830895AF92BF92A7
:10019000CF92DF92EF92FF920F931F93CF93DF9353
:1001A0006C017B018B01040F151FEB015E01AE1882
:1001B000BF08C017D10759F06991D601ED91FC91A4
:1001C0000190F081E02DC6010995892B79F7C501D1
:1001D000DF91CF911F910F91FF90EF90DF90CF9023
:1001E000BF90AF900895FC01638708950895089526
:1001F0000895FC01538D448D252F30E0842F90E02D
:10020000821B930B541710F0CF9608950197089511
:10021000FC01918D828D981761F0A28DAE0FBF2FDA
:10022000B11D5D968C91928D9F5F9F73928F90E030
:1002300008958FEF9FEF0895FC01918D828D98179F
:1002400031F0828DE80FF11D858D90E008958FEFDC
:100250009FEF0895FC01918D228D892F90E0805CA5
:100260009F4F821B91098F739927089587E693E02A
:100270000E942A0121E0892B09F420E0822F0895B1
:1002800080E090E0892B29F00E94360181110C94C6
:1002900000000895FC01A48DA80FB92FB11DA35A29
:1002A000BF4F2C91848D90E001968F739927848F96
:1002B000A689B7892C93A089B1898C9183708064B9
:1002C0008C93938D848D981306C00288F389E02D5A
:1002D00080818F7D80830895EF92FF920F931F930B
:1002E000CF93DF93EC0181E0888F9B8D8C8D9813E9
:1002F0001AC0E889F989808185FF15C09FB7F894F5
:10030000EE89FF896083E889F98980818370806440
:1003100080839FBF81E090E0DF91CF911F910F918B
:10032000FF90EF900895F62E0B8D10E00F5F1F4F9A
:100330000F731127E02E8C8D8E110CC00FB607FCA9
:10034000FACFE889F989808185FFF5CFCE010E9437
:100350004A01F1CFEB8DEC0FFD2FF11DE35AFF4F5A
:10036000F0829FB7F8940B8FEA89FB8980818062C5
:10037000CFCFCF93DF93EC01888D8823B9F0AA8982
:10038000BB89E889F9898C9185FD03C0808186FD50
:100390000DC00FB607FCF7CF8C9185FFF2CF80819F
:1003A00085FFEDCFCE010E944A01E9CFDF91CF91C9
:1003B000089590E0FC01EE52FF4F2491FC01E254BD
:1003C000FF4F3491FC01E655FF4FE491EE23C9F055
:1003D000222339F0233001F1A8F4213019F1223021
:1003E00029F1F0E0EE0FFF1FE056FF4FA591B49109
:1003F0008FB7F894EC91611126C030953E233C9361
:100400008FBF08952730A9F02830C9F0243049F76C
:10041000809180008F7D03C0809180008F778093D2
:100420008000DFCF84B58F7784BDDBCF84B58F7D2F
:10043000FBCF8091B0008F778093B000D2CF8091B6
:10044000B0008F7DF9CF3E2BDACFCF93DF9390E0D2
:10045000FC01E254FF4F249186559F4FFC0184918B
:100460008823D1F090E0880F991FFC01EA56FF4FD6
:10047000A591B491FC01E056FF4FC591D491623033
:1004800071F49FB7F8943C91822F809583238C93CD
:10049000E8812E2B28839FBFDF91CF9108958FB7DE
:1004A000F894EC912E2B2C938FBFF6CF82309105D0
:1004B00038F0880F991F880F991F05970197F1F75A
:1004C00008953FB7F8948091FD029091FE02A091AB
:1004D000FF02B091000326B5A89B05C02F3F19F07D
:1004E0000196A11DB11D3FBFBA2FA92F982F8827B4
:1004F000BC01CD01620F711D811D911D42E0660F8F
:10050000771F881F991F4A95D1F708958F929F9260
:10051000AF92BF92CF92DF92EF92FF926B017C017C
:100520000E9461024B015C01C114D104E104F10499
:10053000B9F00E946102681979098A099B09683E2D
:1005400073408105910580F321E0C21AD108E108CA
:10055000F10888EE880E83E0981EA11CB11CE4CF40
:10056000FF90EF90DF90CF90BF90AF909F908F90D3
:1005700008952FB7F8946091F9027091FA02809172
:10058000FB029091FC022FBF0895FC0183858F3FF1
:1005900019F061E00C94D9010895FC0180819181EA
:1005A000892B39F0A281B3819C9111968C919CBDCD
:1005B0008DBD83858F3F19F060E00C94D9010895BB
:1005C000AF92BF92CF92DF92EF92FF920F931F9361
:1005D000CF93DF93EC0188819981892B89F06EBDDF
:1005E0000DB407FEFDCFBEB48B2DDF91CF911F91CF
:1005F0000F91FF90EF90DF90CF90BF90AF90089554
:100600008885998511E0892B09F010E8AA24A39424
:10061000862F812309F0A12C062F2C813D814E814C
:100620005F8160E271EA87E090E00E941613F22E8B
:10063000B02EE12CC22ED12CFF2019F0C6010E9451
:1006400056028A85877F09F042C08D858F3F89F0E9
:10065000902F912381E009F480E08A1551F0EF8515
:10066000F8898F89992369F19081892B8083AA2445
:10067000A394E989FA898081998D892B8083FF2051
:1006800019F0C6010E9456028E858F3F39F0EB8922
:10069000FC898081988D892309F0E12AE989FA890A
:1006A0009081898D8095892380838E858F3F09F085
:1006B000BE2C88859985892BB9F5110F1111BCCFF6
:1006C00093CF9081809589238083A12CD2CFE98913
:1006D000FA898081998D892B8083FF2019F0C601CA
:1006E0000E9456028D858F3F49F0EF85F8898F89EA
:1006F000902F9123A9F09081892B8083E989FA8931
:100700009081898D8095892380838E858F3F69F2C2
:10071000EB89FC898081988D892339F2E12AC5CF44
:10072000908180958923E9CF1695C8CF8F929F92AB
:10073000AF92BF92CF92DF92EF92FF920F931F93EF
:10074000CF93DF937C014B016A01B22EA32E0E944E
:10075000CD02E401C80CD91CCC15DD0569F4CB2D04
:10076000DA2D0C0F1D1FC017D10759F06FEFC7010D
:100770000E94E0028993F7CF6991C7010E94E002CD
:10078000EBCFC7010E94C50281E0DF91CF911F919D
:100790000F91FF90EF90DF90CF90BF90AF909F9020
:1007A0008F9008958F929F92AF92BF92CF92DF92D7
:1007B000EF92FF920F931F93CF93DF937C01B62E9E
:1007C000A72E6A0149010E94CD02E401080D191DFE
:1007D000C017D10761F4CB2DDA2DCC0EDD1ECC1560
:1007E000DD0551F06991C7010E94E002F8CF6991DF
:1007F000C7010E94E002ECCFC7010E94C50281E060
:10080000DF91CF911F910F91FF90EF90DF90CF90EC
:10081000BF90AF909F908F90089508952091B5025A
:10082000260F3327331F21323105ECF420913D038D
:10083000FC0190E080E0243069F082E00895A0910E
:10084000B5022191AC014B565D4FA40FB52FB11DE0
:100850002C930196861798F38091B502680F6093E8
:10086000B50280E0089581E0089510923D0381E093
:1008700080933C031092170361E082E10E94D9014A
:1008800061E083E10E94D901E9EBF0E080818E7F95
:10089000808380818D7F808388E48093B80085E4A5
:1008A0008093BC000895CF93DF9391E090939402DE
:1008B0008823B9F0C091B800D091BA008091BC00F3
:1008C0008A7B8093BC0060E082E10E94D90160E0F5
:1008D00083E10E94D9010E943504D093BA00C093ED
:1008E000B800DF91CF9108958F929F92AF92BF92FF
:1008F000CF92DF92EF92FF920F931F93CF93DF93EC
:10090000D0916603D13208F0D7C0182FC09165038B
:100910000E9461026B017C0180913D0381116BC0DB
:1009200082E080933D0310933C038FEF80933B0361
:1009300010923A03D0933903A5E4B3E0E9E1F3E080
:1009400080E0D81391C01092180380911803CC0F47
:10095000C82BC093180380911703813009F088C019
:10096000109217030E9461026B017C0180911803B1
:100970008093BB0080913F0390914003A09141037D
:10098000B0914203892B8A2B8B2BA1F00E9461022C
:1009900000913F03109140032091410330914203A5
:1009A0006C197D098E099F09061717072807390753
:1009B00008F442C08091BC0083FDD8CF85EC8093C1
:1009C000BC000E9461026B017C0180913D0382307A
:1009D00009F450C080913B038F3F09F46FC08091B0
:1009E0003B03803209F46CC080913B03803309F4EF
:1009F00069C084E026C080913F0390914003A0919C
:100A00004103B0914203892B8A2B8B2B09F484CFAD
:100A10000E94610280903F0390904003A0904103A8
:100A2000B09042036C197D098E099F0986169706BE
:100A3000A806B90608F070CF80913E030E945304C7
:100A400085E0109244031092660310924303DF91F5
:100A5000CF911F910F91FF90EF90DF90CF90BF90BB
:100A6000AF909F908F9008959D9191938F5F69CFE4
:100A700085EEA5CF80913F0390914003A091410363
:100A8000B0914203892B8A2B8B2B09F49ECF0E94B5
:100A9000610200913F031091400320914103309186
:100AA00042036C197D098E099F090617170728074D
:100AB000390708F08ACFC0CF81E0C3CF80E0C1CF33
:100AC00082E0BFCF83E0BDCF1F93CF93DF93EA01D6
:100AD000122FDC0111968D919C91DC01ED91FC911E
:100AE0000280F381E02D0995C817D90729F4812FD9
:100AF0000E94740491E0811190E0892FDF91CF91E1
:100B00001F910895AF92BF92CF92DF92EF92FF9222
:100B10000F931F93CF93DF9300D0CDB7DEB7DC01E7
:100B2000211103C018962C911897253008F043C066
:100B30001F964D935D936D937C93529790E080E068
:100B4000E22EF12C8E159F05B4F41A962C911A976B
:100B500021110AC0FD01E80FF91F4387452F562FC9
:100B6000672F77270196EECFF701E81BF90BEA0F05
:100B7000FB1F4287F3CF6D018BE0C80ED11C169688
:100B80009C91169717968C91179799838A83AD90AD
:100B9000BC901197A114B10409F441C019960C91AD
:100BA00010E098012E0D3F1DD50114968D919C915A
:100BB0008217930710F480E016C0F50181819281BD
:100BC000208131E030934303209365031092440366
:100BD000109266030115110599F421E0A701B601F1
:100BE000C5010E9464050F900F90DF91CF911F9176
:100BF0000F91FF90EF90DF90CF90BF90AF9008954E
:100C0000DC01ED91FC910280F381E02DA801BE0191
:100C10006F5F7F4F09950817190769F6DECF1296A7
:100C2000ED91FC911397309731F214962D913C91F0
:100C3000159719960C9110E02330310571F48E7FD1
:100C400089839A830F5F1F4F9E012F5F3F4FA7013C
:100C5000B601CF010E94D203C6CF2115310519F488
:100C60009F779983F1CF2230310511F49068F9CF45
:100C70002130310549F79F779064F3CFCF93DF930D
:100C8000EC018B818823A1F0888191E0909343034C
:100C900080936503109244031092660381E00E94E2
:100CA000740491E0811190E0892FDF91CF91089534
:100CB00010920603109205031092440310926603EB
:100CC0000E94350486EF90E0909304038093030321
:100CD00087EF90E0909302038093010381E08B8380
:100CE000CE010E943E06982F8111CECFDDCFE0913C
:100CF000060380910503E81730F4F0E0E852FD4F59
:100D0000808190E008958FEF9FEF08959091060302
:100D1000809105032FEF3FEF981748F4E92FF0E09B
:100D2000E852FD4F208130E09F5F90930603C90198
:100D300008958091050390910603891B990B0895EE
:100D4000CF92DF92EF92FF920F931F93CF93DF9397
:100D50007C01CB018A0120914303222389F0EB011E
:100D60006B01C40ED51ECC15DD0569F06991D70164
:100D7000ED91FC910190F081E02DC7010995F3CF31
:100D8000642F0E940E04C801DF91CF911F910F9133
:100D9000FF90EF90DF90CF900895CF93DF931F9255
:100DA000CDB7DEB76983209143032223F9F0209168
:100DB0006603203258F021E030E0FC0133832283C7
:100DC00090E080E00F90DF91CF91089580914403EF
:100DD000E82FF0E0EB5BFC4F998190838F5F80936D
:100DE00044038093660381E090E0ECCF61E0CE01A4
:100DF00001960E940E04F7CF90E080E0089562E033
:100E000082E00E94250261E082E00E94250261E00A
:100E100082E00E94D90162E083E00E94250261E045
:100E200083E00E94250261E083E00E94D90162E034
:100E300084E00E94250261E084E00E94250261E0D6
:100E400084E00E94D90162E085E00E94250261E011
:100E500085E00E94250261E085E00E94D90162E000
:100E600086E00E94250261E086E00E94250261E0A2
:100E700086E00C94D901FC0101900020E9F731973C
:100E8000AF01481B590BBC0187E693E00C94C600E8
:100E90008F929F92AF92BF920F931F93CF93DF9346
:100EA000CDB7DEB7A1970FB6F894DEBF0FBECDBFAA
:100EB00019A2423008F44AE08E010F5D1F4F842EC4
:100EC000912CB12CA12CA50194010E941613E62FA0
:100ED000B901CA01EA30F4F4E05DD801EE938D0166
:100EE000232B242B252B79F790E080E0109719F025
:100EF000CD010E943B07A1960FB6F894DEBF0FBE4E
:100F0000CDBFDF91CF911F910F91BF90AF909F9078
:100F10008F900895E95CE1CFCF93DF930E943B0768
:100F2000EC0180E491E00E943B078C0F9D1FDF9154
:100F3000CF910895CF92DF92EF92FF92CF93DF93FC
:100F40006C01990FEE08FF08F7FE19C06DE287E605
:100F500093E00E946C01EC0166277727CB016C19A6
:100F60007D098E099F094AE00E9448078C0F9D1F4A
:100F7000DF91CF91FF90EF90DF90CF9008954AE0FE
:100F8000C701B601DF91CF91FF90EF90DF90CF9036
:100F90000C9448074F925F926F927F928F929F922C
:100FA000AF92BF92CF92DF92EF92FF920F931F9377
:100FB000CF936B017C01742EAC019B010E94F01455
:100FC000882399F083E491E0CF911F910F91FF90D6
:100FD000EF90DF90CF90BF90AF909F908F907F90D9
:100FE0006F905F904F900C943B0746015701E89437
:100FF000B7F82FEF3FEF4FE75FE7C501B4010E945D
:10100000F01481110DC02FEF3FEF4FE75FE7C501EF
:10101000B4010E94F21118161CF487E491E0D4CFB9
:101020002FEF3FEF4FE75FE4C701B6010E94DF14E7
:1010300018161CF48BE491E0C7CF2FEF3FEF4FE77A
:101040005FECC701B6010E94F21187FDF3CF20E0EB
:1010500030E0A901C701B6010E94F21110E000E0E2
:1010600087FF0AC06DE287E693E00E946C018C0165
:10107000F7FAF094F7F8F094C0E060E070E080E0F8
:101080009FE37C1641F020E030E040E251E40E9412
:101090001714CF5FF6CFA70196010E9439132B01D9
:1010A0003C010E9489144B015C014AE00E94480700
:1010B0007C01E00EF11ECC23C1F1C501B4010E94F8
:1010C000F7119B01AC01C301B2010E9438134B011F
:1010D0005C016EE287E693E00E946C01E80EF91E67
:1010E000C15018F120E030E040E251E4C501B40104
:1010F0000E9458122B013C010E9489144B01B12C13
:10110000A12C4AE0C501B4010E944807E80EF91E6F
:10111000C501B4010E94F7119B01AC01C301B201EA
:101120000E9438134B015C01DBCFC701CF911F91A7
:101130000F91FF90EF90DF90CF90BF90AF909F9076
:101140008F907F906F905F904F900895CF93DF9333
:1011500042E00E94CA07EC0180E491E00E943B0754
:101160008C0F9D1FDF91CF9108952F923F924F9248
:101170005F926F927F928F929F92AF92BF92CF9227
:10118000DF92EF92FF920F931F93CF93DF9300D0E4
:1011900000D0CDB7DEB7FC014B01042F96818781CB
:1011A00099838A83208031802114310409F439C164
:1011B000418550E0D10114968D919C91841795073B
:1011C000C8F4B12C8B2D0F900F900F900F90DF91E2
:1011D000CF911F910F91FF90EF90DF90CF90BF9034
:1011E000AF909F908F907F906F905F904F903F90C7
:1011F0002F900895F101808191E0909343038093B3
:101200006503109244031092660320E0BE016F5FF5
:101210007F4FC1010E946405B82E882391F2802F70
:1012200090E09C838B83D12CC12C01E0AB81BC81ED
:10123000CA16DB0638F6F101848195817D01EC1830
:10124000FD088E159F0508F47C01D101AC900E9429
:1012500061022B013C0180913D03811172C01E2D62
:10126000113208F010E200933D0321E08B819C8154
:101270008E199F09C816D90608F420E020933C0374
:10128000BFEFB0933B0310923A038FEF810F80932F
:1012900039030093180380911803AA0CA82AA0927E
:1012A000180380911703813009F092C01092170340
:1012B0000E9461022B013C01809118038093BB00C6
:1012C00080913F0390914003A0914103B09142036C
:1012D000892B8A2B8B2BA1F00E94610220913F0366
:1012E00030914003409141035091420364197509C4
:1012F00086099709261737074807590708F442C097
:101300008091BC0083FDD8CFE5ECE093BC000E9447
:1013100061022B013C0180913D03813009F45CC0E6
:1013200080913A03811710F410913A03A9E1B3E0D8
:10133000E8EDF2E080E0811751F19D9191938F5F8C
:10134000FACF80913F0390914003A0914103B09167
:101350004203892B8A2B8B2B09F47DCF0E946102DB
:1013600020913F033091400340914103509142034B
:101370006419750986099709261737074807590719
:1013800008F069CF80913E030E94530410E0109250
:101390000603109305031E151F0409F012CF340134
:1013A0006C0C7D1C2301C201861997098E159F05BF
:1013B000A8F5D10111968D919C91DC01ED91FC91E4
:1013C0000284F385E02D0995F20181932F01EBCF83
:1013D000F5EEF093BC009BCF80913F0390914003CA
:1013E000A0914103B0914203892B8A2B8B2B09F4E6
:1013F00092CF0E94610220913F03309140034091BF
:10140000410350914203641975098609970926170B
:1014100037074807590708F07ECFB4CFCE0CDF1C42
:1014200005CFA281B381109709F4CBCE24813581F9
:1014300010E0418550E02330310571F481608983EB
:101440009A834F5F5F4F9401BE016F5F7F4FCD0165
:101450000E949603B82EB6CE2115310519F4906876
:101460009983F1CF2230310511F49F77F9CF2130E4
:10147000310549F7906CF4CFCF93DF93EC01BC01B9
:10148000655F7F4F48850E94B508882301F1488534
:1014900050E030E020E060E070E0CB012417350739
:1014A000CCF4982F872F762F6627EA85E1110AC0A2
:1014B000FA01E21BF30BEC0FFD1FE2856E2B2F5F91
:1014C0003F4FECCFFE01E20FF31FE385F7CF6FEF45
:1014D0007FEFCB01DF91CF910895EF92FF920F93B1
:1014E0001F93CF93DF93CDB7DEB763970FB6F89412
:1014F000DEBF0FBECDBF7C018B01FC0180899189CD
:10150000188A198A1A8A1B8A9A8389831C821B82E9
:1015100081E08A8721E030E038872F831B86898726
:10152000CE0101960E943C0ADC01CB018F71A8011B
:1015300070E060E025E0440F551F661F771F2A9575
:10154000D1F7482B592B6A2B7B2B2985CE0101968D
:101550000E948205F701128701870330110509F403
:101560006AC068F50130110509F443C00230110565
:1015700009F450C080E090E8A9E8B4E48093040145
:1015800090930501A0930601B093070180E090E0DD
:10159000A5E7B4E48093000190930101A0930201B8
:1015A000B093030163960FB6F894DEBF0FBECDBFB4
:1015B000DF91CF911F910F91FF90EF90089505302B
:1015C000110509F45AC008F447C00630110591F618
:1015D00080E090E0A6E6B3E48093040190930501D7
:1015E000A0930601B093070180E090E0ADE4B3E47E
:1015F000D1CF80E090ECA5E5B4E480930401909312
:101600000501A0930601B093070180E090E0AEE3EE
:10161000B4E4C0CF80E090E8A7E2B4E48093040192
:1016200090930501A0930601B093070180E090E03C
:10163000A6E1B4E4AFCF80E090E0A1EEB3E4809304
:10164000040190930501A0930601B093070180E087
:1016500090E0A8ECB3E49ECF80E090E0A8ECB3E487
:101660008093040190930501A0930601B0930701B4
:1016700080E090E8A1EBB3E48DCF80E090E0A5EAB4
:10168000B3E48093040190930501A0930601B09305
:10169000070180E090E8A3E9B3E47CCF0C949715B0
:1016A000CF93DF93EB01FB01709628E1DF011D92E0
:1016B0002A95E9F72BE0EFE4F1E0DB0101900D92D0
:1016C0002A95E1F71B8641E050E060E070E04C872E
:1016D0005D876E877F87FC0184859585A685B785A4
:1016E000888B998BAA8BBB8B82E090E0A0E0B0E066
:1016F0008C8B9D8BAE8BBF8B1CA21DA21EA21FA22A
:10170000188E198E1A8E1B8E1C8E1D8E1E8E1F8E8D
:1017100018A219A21AA21BA2DF91CF9108958F924D
:101720009F92AF92BF92CF92DF92EF92FF920F9370
:101730001F93CF93DF93CDB7DEB7AC970FB6F89476
:10174000DEBF0FBECDBF8C017B0184E2FB01119295
:101750008A95E9F7F801808991891BA21CA21DA234
:101760001EA29D8B8C8B1F8A1E8A81E08D8F29E0A3
:1017700030E03B8F2A8F1E8E8C8FBB24B39483E086
:10178000C82ED12C96E0A92ECE0144960E943C0A88
:1017900060FFFEC0F80180899189188A198A1A8A27
:1017A0001B8A9A8389831C821B82BA86D886CF8241
:1017B0001B86A98646E0BE01695D7F4FCE0101967A
:1017C0000E94B5084FA158A554274527542789A53D
:1017D0009AA59827892798272BA53CA53227232748
:1017E0003227F80154834383368325839087878388
:1017F0006385662329F1BA016950784F51E06F3E45
:101800007F4008F450E02950384F41E02F3E3F40E0
:1018100008F440E0542B29F48950984F8F3E9F40A4
:1018200078F0F801818592858230910509F4A7C08E
:1018300008F092C0009709F4A8C0019709F4A2C06B
:1018400084E290E0A0E0B0E0F70180839183A2837E
:10185000B383F80184859585A685B785F7018483D0
:101860009583A683B78382E090E0A0E0B0E0808714
:101870009187A287B3870E94B902F701608B718BB1
:10188000828B938B8090040190900501A0900601BB
:10189000B0900701F80163817481072E000C880B5A
:1018A000990B0E94F911A50194010E94171420E0E0
:1018B00030E048EC52E40E945812F701648B758BBB
:1018C000868B978BF80165817681072E000C880B3B
:1018D000990B0E94F911A50194010E94171420E0B0
:1018E00030E048EC52E40E945812F701608F718F8B
:1018F000828F938FF80167817085072E000C880B0B
:10190000990B0E94F9112091000130910101409141
:101910000201509103010E94171420E030E048ECCE
:1019200052E40E945812F701648F758F868F978F4B
:1019300081E0AC960FB6F894DEBF0FBECDBFDF914D
:10194000CF911F910F91FF90EF90DF90CF90BF90BC
:10195000AF909F908F9008958430910551F060F082
:10196000059709F06DCF66E070E0C8010E946D0A2E
:101970000BCF65E070E0F9CF64E070E0F6CF63E094
:1019800070E0F3CF62E070E0F0CF61E070E0EDCFA7
:1019900080E0CFCF85ED8093BC0080913F03909194
:1019A0004003A0914103B09142030796A11DB11DD0
:1019B00023E0B695A795979587952A95D1F720911D
:1019C000BC0024FD03C010923D03089540913F03E5
:1019D000509140036091410370914203452B462B87
:1019E000472B69F30097A105B10541F02AE22A953A
:1019F000F1F700C00197A109B109E1CF80913E0341
:101A00000C94530460E772E086E594E00E948F0B2B
:101A1000E0E7F2E02489358946895789608D718D28
:101A2000828D938D0E94B81322EE3EE245E652E489
:101A30000E94581208951F920F920FB60F92112410
:101A40002F933F934F935F936F937F938F939F93C6
:101A5000AF93BF93EF93FF9387E693E00E944A0111
:101A6000FF91EF91BF91AF919F918F917F916F9176
:101A70005F914F913F912F910F900FBE0F901F904C
:101A800018951F920F920FB60F9211242F938F93D8
:101A90009F93EF93FF93E0917703F0917803808118
:101AA000E0917D03F0917E0382FD1BC090818091C7
:101AB00080038F5F8F7320918103821741F0E09143
:101AC0008003F0E0E959FC4F958F80938003FF91EC
:101AD000EF919F918F912F910F900FBE0F901F90BC
:101AE00018958081F4CF1F920F920FB60F92112498
:101AF0002F933F938F939F93AF93BF938091F9025E
:101B00009091FA02A091FB02B091FC023091F80290
:101B100023E0230F2D3758F50196A11DB11D209309
:101B2000F8028093F9029093FA02A093FB02B0931B
:101B3000FC028091FD029091FE02A091FF02B09103
:101B400000030196A11DB11D8093FD029093FE023A
:101B5000A093FF02B0930003BF91AF919F918F912B
:101B60003F912F910F900FBE0F901F90189526E870
:101B7000230F0296A11DB11DD2CF1F920F920FB657
:101B80000F9211242F933F934F935F936F937F9303
:101B90008F939F93AF93BF93EF93FF938091B9007F
:101BA000887F803609F44AC0F0F5883209F4A7C06E
:101BB00018F5803109F49BC0B8F4882309F4F9C002
:101BC000883009F494C0FF91EF91BF91AF919F913C
:101BD0008F917F916F915F914F913F912F910F90D6
:101BE0000FBE0F901F901895883109F488C080327D
:101BF00051F780933B0314C0803409F49DC040F436
:101C00008033B9F38833F9F680933B0385ECB0C099
:101C1000803509F485C0883509F496C0883499F672
:101C20000E94CA0CD0CF883909F48CC038F58837A7
:101C300029F050F4883611F0803729F683E080933C
:101C40003D031092D70257C0883809F47BC0803911
:101C500019F0803809F0B7CF8091D702803208F0B0
:101C600071C0E091D70281E08E0F8093D7028091FE
:101C7000BB00F0E0E954FD4F80833DC0803B39F06C
:101C8000E0F4803A09F479C0883A09F09CCF84E006
:101C900080933D031092B6021092B502E0910303C7
:101CA000F091040309958091B50281110FC081E084
:101CB0008093B5021092950209C0803C09F4A6CF2A
:101CC000883C09F4A3CF883B09F07DCFE091B602B0
:101CD00081E08E0F8093B602F0E0EB56FD4F8081DD
:101CE0008093BB009091B6028091B50229C080918B
:101CF00018038093BB0085EC8093BC0064CF909167
:101D00003A0380913903981758F5E0913A0381E03E
:101D10008E0F80933A03F0E0E75EFC4F8081E9CFBD
:101D2000E0913A0381E08E0F80933A038091BB00EB
:101D3000F0E0E75EFC4F808390913A038091390395
:101D40009817C8F285E8D8CFE0913A0381E08E0F6A
:101D500080933A038091BB00F0E0E75EFC4F808304
:101D600080913C0381115CCF81E08093170384EA6A
:101D70008093BC0010923D0326CF85EC8093BC007D
:101D800010923D038091D702803230F4E091D70267
:101D9000F0E0E954FD4F10826091D70270E0E091CD
:101DA0000103F091020387EB92E009951092D702AC
:101DB0000ACF10923B0334CFE7E6F3E0138212829E
:101DC00088EE93E0A0E0B0E084839583A683B78398
:101DD00022E131E03183208325EC30E03587248710
:101DE00024EC30E03787268720EC30E0318B208BE5
:101DF00021EC30E0338B228B22EC30E0358B248BCE
:101E000026EC30E0378B268B118E128E138E148EBB
:101E1000E4E0F4E01382128284839583A683B7837F
:101E200084E291E091838083E0E1F4E016821782FE
:101E300010861186128613861486158616861786D6
:101E4000108A118A128A138A148A158AE6E5F4E048
:101E500086E391E09183808389E390E3A0E0B0E0A2
:101E600084879587A687B787138614821382168284
:101E70001582108617820895CF93DF93CDB7DEB712
:101E8000A9970FB6F894DEBF0FBECDBF789484B586
:101E9000826084BD84B5816084BD85B5826085BD66
:101EA00085B5816085BD80916E00816080936E00F4
:101EB00010928100809181008260809381008091E6
:101EC0008100816080938100809180008160809397
:101ED00080008091B10084608093B1008091B00057
:101EE00081608093B00080917A00846080937A0052
:101EF00080917A00826080937A0080917A0081607C
:101F000080937A0080917A00806880937A001092A2
:101F1000C100109252041092530410925404109273
:101F2000550410921204109213041092140410928B
:101F300015040E94B9024B015C012B013C0128EB06
:101F4000420E2BE0521E611C711C0E94B9026815E2
:101F500079058A059B0528F0461657066806790616
:101F6000A0F768EE73E080E090E00E9486020E9495
:101F70009E000E94B9026093120470931304809330
:101F80001404909315048DE591E00E943B070E9494
:101F9000B9024B015C012B013C018AE0480E511C47
:101FA000611C711C0E94B902681579058A059B05A0
:101FB00028F04616570668067906A0F7FF24F39422
:101FC000F09226040E94B9026093120470931304E5
:101FD00080931404909315048EE691E00E943B07D1
:101FE0000E949E0085E791E00E948C070E94FF06F8
:101FF00086E090E00E94FB148C018EE1F801808362
:1020000084E094E092838183138280E290E0958360
:102010008483109367040093660410920603109261
:10202000050310924403109266030E94350486EF64
:1020300090E0909304038093030387EF90E09093E4
:10204000020380930103F801F382C8010E943E0657
:10205000882309F46CC080916604909167041BA2E8
:102060001CA21DA21EA29D8B8C8B1F8A1E8AFD8E18
:1020700082E090E09B8F8A8F1E8EFC8E20E040E0F5
:1020800050E0BA01CE0144960E9482058091660418
:1020900090916704188A198A1A8A1B8A9A838983FD
:1020A0001C821B82FA868AE090E098878F831B86C9
:1020B00083E0898743E0BE01695D7F4FCE010196D1
:1020C0000E94B5088FA1883491F588A5843379F5ED
:1020D00089A5833361F570E060E086E594E00E94B5
:1020E0006D0AF092610489E991E00E948C07E0E0BA
:1020F000EE2EE0E0FE2E87E693E00E942A01892B77
:10210000B9F187E693E00E940801883609F452C0CD
:102110008CF4823509F4B8C08335B1F1833491F47D
:1021200010920B03109216031092150321C087EC36
:1021300091E0DBCF803759F1823709F47FC08D36CB
:1021400009F441C020911503309116032A3031055E
:102150003CF7A9014F5F5F4F50931603409315035F
:10216000255F3C4FF9018083455F5C4FFA01108287
:10217000E114F10409F4BFCF0E943601882309F469
:10218000BACF0E940000B7CF0E94FF06C9CF80EFF0
:1021900091E00E948C0760E086E00E94D90168EC23
:1021A00070E080E090E00E94860261E086E00E949C
:1021B000D901B6CF86E092E00E943B070E94020D53
:1021C0000E94A608ADCF8BE093E00E94CC118C0159
:1021D0008938F3E19F0744F58D509E4F873E934029
:1021E00040F142E0B42E0D308EEF18072CF411951B
:1021F0000195110973E0B72E88E192E00E943B0738
:10220000C8010E949A0784E392E00E948C0760E074
:102210008B2D0E94D901B801110F880B990B0E94D8
:10222000860261E08B2DC3CF62E0B62E08E813E191
:10223000E3CF52E0B52E10E000E0DECF8BE093E07C
:102240000E94CC118C018938E3E19E079CF48D50EB
:102250009E4F873E934098F085E0B82E0D302EEFCC
:1022600012072CF411950195110934E0B32E83E483
:1022700092E0C4CF25E0B22E08E813E1F8CF95E054
:10228000B92E10E000E0F3CF8BE093E00E94CC1178
:10229000BC01990F880B990B0E94F9114B015C014D
:1022A00020E030E0A9010E94DF1414E087FF15E070
:1022B0000E94020D2B013C010E94A608A30192017D
:1022C000C501B4010E9439134B015C0120E030E0EC
:1022D00044EB53E40E94DF1487FD0AC020E030E0A5
:1022E00044EB53E4C501B4010E9438134B015C0177
:1022F000C501B4010E94A6080E94020D2B013C01F9
:1023000040920703509208036092090370920A03F7
:1023100060E0812F0E94D90142E0C301B2010E9416
:10232000CA0786E192E00E943B0740900703509065
:1023300008036090090370900A0320E030E040E851
:102340005FE3C501B4010E943813A30192010E940A
:10235000F21187FFD1CF20E030E040E85FE3C50114
:10236000B4010E9439139B01AC01C301B2010E9468
:10237000F21187FFC1CF8DE592E00E948C0760913A
:102380000703709108038091090390910A030E944A
:10239000A60861E0812F0BCFFC0188279927E894DC
:1023A00021912032E9F3293010F02E30C8F32B327E
:1023B00041F02D3239F4689404C00E94EA11820F72
:1023C000911D219120532A30C0F31EF490958195E0
:1023D0009F4F08957AE0979F902D879F802D910DB4
:1023E000112408950E94341208F481E00895E894BD
:1023F00009C097FB3EF490958095709561957F4F4D
:102400008F4F9F4F9923A9F0F92F96E9BB279395FA
:10241000F695879577956795B795F111F8CFFAF40A
:10242000BB0F11F460FF1BC06F5F7F4F8F4F9F4F3B
:1024300016C0882311F096E911C0772321F09EE899
:10244000872F762F05C0662371F096E8862F70E0FF
:1024500060E02AF09A95660F771F881FDAF7880FD9
:102460009695879597F90895990F0008550FAA0B2F
:10247000E0E8FEEF16161706E807F907C0F0121697
:102480001306E407F50798F0621B730B840B950B9A
:1024900039F40A2661F0232B242B252B21F40895EF
:1024A0000A2609F4A140A6958FEF811D811D08958C
:1024B0000E946B120C94DC120E94CE1238F00E9423
:1024C000D51220F0952311F00C94C5120C94CB1268
:1024D00011240C9410130E94ED1270F3959FC1F318
:1024E000950F50E0551F629FF001729FBB27F00DC2
:1024F000B11D639FAA27F00DB11DAA1F649F662717
:10250000B00DA11D661F829F2227B00DA11D621F65
:10251000739FB00DA11D621F839FA00D611D221F1F
:10252000749F3327A00D611D231F849F600D211D03
:10253000822F762F6A2F11249F5750409AF0F1F086
:1025400088234AF0EE0FFF1FBB1F661F771F881FEF
:1025500091505040A9F79E3F510580F00C94C51250
:102560000C9410135F3FE4F3983ED4F3869577956F
:102570006795B795F795E7959F5FC1F7FE2B880F95
:10258000911D9695879597F9089597F99F6780E82B
:1025900070E060E008959FEF80EC089500240A94B5
:1025A0001616170618060906089500240A9412162E
:1025B0001306140605060895092E0394000C11F461
:1025C000882352F0BB0F40F4BF2B11F460FF04C00E
:1025D0006F5F7F4F8F4F9F4F089557FD9058440F67
:1025E000551F59F05F3F71F04795880F97FB991F72
:1025F00061F09F3F79F0879508951216130614062F
:10260000551FF2CF4695F1DF08C0161617061806BB
:10261000991FF1CF86957105610508940895E89496
:10262000BB2766277727CB0197F90895A1E21A2ED9
:10263000AA1BBB1BFD010DC0AA1FBB1FEE1FFF1F66
:10264000A217B307E407F50720F0A21BB30BE40BB6
:10265000F50B661F771F881F991F1A9469F76095FD
:102660007095809590959B01AC01BD01CF010895B7
:102670005058BB27AA270E9450130C94DC120E94CA
:10268000CE1238F00E94D51220F039F49F3F19F491
:1026900026F40C94CB120EF4E095E7FB0C94C512D3
:1026A000E92F0E94ED1258F3BA17620773078407E7
:1026B000950720F079F4A6F50C940F130EF4E0952D
:1026C0000B2EBA2FA02D0B01B90190010C01CA01EC
:1026D000A0011124FF27591B99F0593F50F4503E97
:1026E00068F11A16F040A22F232F342F4427585F89
:1026F000F3CF469537952795A795F0405395C9F7A1
:102700007EF41F16BA0B620B730B840BBAF0915058
:10271000A1F0FF0FBB1F661F771F881FC2F70EC0F7
:10272000BA0F621F731F841F48F4879577956795CA
:10273000B795F7959E3F08F0B0CF9395880F08F0B6
:102740009927EE0F9795879508950E94CE1260F015
:1027500080E891E009F49EEF0E94D51228F040E84D
:1027600051E071F45EEF0CC00C94CB120C940F137B
:10277000E92FE0780E94ED1240F3092E052AB1F30B
:10278000261737074807590738F00E2E07F8E025B7
:1027900069F0E025E0640AC0EF6307F8009407FAE7
:1027A000DB01B9019D01DC01CA01AD01EF930E947B
:1027B0002E140E94DC120E94E8135F91552339F019
:1027C0002BED3FE049E450FD49EC0C94391308959A
:1027D000DF93DD27B92FBF7740E85FE316161706B2
:1027E00048075B0718F4D92F0E94E4149F938F9336
:1027F0007F936F930E94EC14E8E6F0E00E94B81417
:102800000E94DC122F913F914F915F910E946B12B9
:10281000DD2351F09058A2EA2AED3FE049EC5FE356
:10282000D0785D270E945013DF910C94DC120E9437
:102830002B140C94DC120E94D51258F00E94CE1278
:1028400040F029F45F3F29F00C94C51251110C940B
:1028500010130C94CB120E94ED1268F39923B1F37C
:10286000552391F3951B550BBB27AA2762177307B6
:10287000840738F09F5F5F4F220F331F441FAA1F4A
:10288000A9F335D00E2E3AF0E0E832D09150504006
:10289000E695001CCAF72BD0FE2F29D0660F771FB4
:1028A000881FBB1F261737074807AB07B0E809F09A
:1028B000BB0B802DBF01FF2793585F4F3AF09E3F1F
:1028C000510578F00C94C5120C9410135F3FE4F39B
:1028D000983ED4F3869577956795B795F7959F5F62
:1028E000C9F7880F911D9695879597F90895E1E0AE
:1028F000660F771F881FBB1F621773078407BA070D
:1029000020F0621B730B840BBA0BEE1F88F7E09567
:1029100008950E94F51288F09F5798F0B92F9927D3
:10292000B751B0F0E1F0660F771F881F991F1AF0BA
:10293000BA95C9F714C0B13091F00E940F13B1E0FD
:1029400008950C940F13672F782F8827B85F39F0FC
:10295000B93FCCF3869577956795B395D9F73EF453
:1029600090958095709561957F4F8F4F9F4F0895FB
:10297000DF93CF931F930F93FF92EF92DF927B0130
:102980008C01689406C0DA2EEF010E946B12FE01E2
:10299000E894A5912591359145915591A6F3EF01C4
:1029A0000E945013FE019701A801DA9469F7DF90A5
:1029B000EF90FF900F911F91CF91DF9108950E94AA
:1029C000341208F48FEF08959B01AC0160E070E0D1
:1029D00080E89FE30C9417149B01AC010C945812EF
:1029E0000E943412880B990B0895EE0FFF1F05907B
:1029F000F491E02D09940F931F93CF93DF938230CE
:102A0000910510F482E090E0E0916A04F0916B048B
:102A100030E020E0B0E0A0E0309799F421153105D6
:102A200009F44AC0281B390B24303105D8F58A81B6
:102A30009B816115710589F1FB0193838283FE01FE
:102A400011C0408151810281138148175907E0F07C
:102A50004817590799F4109761F012960C93129742
:102A600013961C933296CF01DF91CF911F910F9156
:102A7000089500936A0410936B04F4CF2115310577
:102A800051F04217530738F0A901DB019A01BD014B
:102A9000DF01F801C1CFEF01F9CF90936B04809370
:102AA0006A04CDCFFE01E20FF31F81939193225070
:102AB000310939832883D7CF209168043091690484
:102AC000232B41F420910A0130910B0130936904CA
:102AD00020936804209108013091090121153105E6
:102AE00041F42DB73EB740910C0150910D01241BCC
:102AF000350BE0916804F0916904E217F307A0F444
:102B00002E1B3F0B2817390778F0AC014E5F5F4F43
:102B10002417350748F04E0F5F1F50936904409308
:102B20006804819391939FCFF0E0E0E09CCFCF9336
:102B3000DF930097E9F0FC01329713821282A09193
:102B40006A04B0916B04ED0130E020E01097A1F42D
:102B500020813181820F931F209168043091690494
:102B60002817390709F061C0F0936904E0936804FD
:102B7000DF91CF910895EA01CE17DF07E8F54A818A
:102B80005B819E0141155105B1F7E901FB83EA83A1
:102B900049915991C40FD51FEC17FD0761F480814D
:102BA00091810296840F951FE90199838883828120
:102BB00093819B838A83F0E0E0E012968D919C9153
:102BC00013970097B9F52D913C911197CD0102967D
:102BD000820F931F209168043091690428173907E8
:102BE00039F6309751F510926B0410926A04B09345
:102BF0006904A0936804BCCFD383C2834081518110
:102C0000840F951FC817D90761F44E5F5F4F888105
:102C10009981480F591F518340838A819B819383F7
:102C200082832115310509F0B0CFF0936B04E09356
:102C30006A049ECFFD01DC01C0CF13821282D7CF80
:042C4000F894FFCF36
:102C4400000075440080894400006C04800000008A
:102C540000006C01C600F900B9012A0108011C0139
:102C640000000000CD06A006FC06F80099068606C2
:102C74007706000000000D044E0BF3008F0B500B81
:102C84000D0A006E616E00696E66006F7666004C18
:102C9400534D333033444C48204D616700564D4406
:102CA40050565F317C315F564D4450560A00564DA4
:102CB4004450525F0042434920776865656C6368FD
:102CC40061697220636F6E74726F6C6C65722063DD
:102CD4006F6E6E6563746564004C534D33303320FE
:102CE4004D61676E65746F6D6574657220696E6998
:102CF4007469616C697A6174696F6E20636F6D7059
:102D04006C657465642E004C534D333033204D6133
:102D14006765746F6D6574657220696E6974696C3A
:102D2400697A6174696F6E206661696C65642E00EE
:102D3400537769746368696E6720494F4D207072D8
:102D44006F66696C650043757272656E74206865A0
:102D54006164696E673A20004D6F76696E6720740E
:102D6400686520776865656C636861697220666F61
:102D7400723A2000206D696C6C697365636F6E64D0
:102D8400732E00526F746174696E6720776865658D
:102D94006C636861697220666F723A2000526F74C6
:102DA4006174696F6E20436F6D706C657465640047
:00000001FF
